{
  "contractName": "Calendar",
  "abi": [
    {
      "constant": true,
      "inputs": [],
      "name": "name",
      "outputs": [
        {
          "name": "",
          "type": "string"
        }
      ],
      "payable": false,
      "stateMutability": "view",
      "type": "function"
    },
    {
      "constant": true,
      "inputs": [
        {
          "name": "",
          "type": "uint256"
        }
      ],
      "name": "stopTimestampsMap",
      "outputs": [
        {
          "name": "entriesLength",
          "type": "uint256"
        },
        {
          "name": "rootIdx",
          "type": "uint256"
        }
      ],
      "payable": false,
      "stateMutability": "view",
      "type": "function"
    },
    {
      "constant": true,
      "inputs": [
        {
          "name": "_tokenId",
          "type": "uint256"
        }
      ],
      "name": "getApproved",
      "outputs": [
        {
          "name": "",
          "type": "address"
        }
      ],
      "payable": false,
      "stateMutability": "view",
      "type": "function"
    },
    {
      "constant": false,
      "inputs": [
        {
          "name": "_to",
          "type": "address"
        },
        {
          "name": "_tokenId",
          "type": "uint256"
        }
      ],
      "name": "approve",
      "outputs": [],
      "payable": false,
      "stateMutability": "nonpayable",
      "type": "function"
    },
    {
      "constant": true,
      "inputs": [],
      "name": "totalSupply",
      "outputs": [
        {
          "name": "",
          "type": "uint256"
        }
      ],
      "payable": false,
      "stateMutability": "view",
      "type": "function"
    },
    {
      "constant": false,
      "inputs": [
        {
          "name": "_from",
          "type": "address"
        },
        {
          "name": "_to",
          "type": "address"
        },
        {
          "name": "_tokenId",
          "type": "uint256"
        }
      ],
      "name": "transferFrom",
      "outputs": [],
      "payable": false,
      "stateMutability": "nonpayable",
      "type": "function"
    },
    {
      "constant": true,
      "inputs": [
        {
          "name": "",
          "type": "uint256"
        }
      ],
      "name": "startTimestampsMap",
      "outputs": [
        {
          "name": "entriesLength",
          "type": "uint256"
        },
        {
          "name": "rootIdx",
          "type": "uint256"
        }
      ],
      "payable": false,
      "stateMutability": "view",
      "type": "function"
    },
    {
      "constant": true,
      "inputs": [
        {
          "name": "_owner",
          "type": "address"
        },
        {
          "name": "_index",
          "type": "uint256"
        }
      ],
      "name": "tokenOfOwnerByIndex",
      "outputs": [
        {
          "name": "",
          "type": "uint256"
        }
      ],
      "payable": false,
      "stateMutability": "view",
      "type": "function"
    },
    {
      "constant": false,
      "inputs": [
        {
          "name": "_from",
          "type": "address"
        },
        {
          "name": "_to",
          "type": "address"
        },
        {
          "name": "_tokenId",
          "type": "uint256"
        }
      ],
      "name": "safeTransferFrom",
      "outputs": [],
      "payable": false,
      "stateMutability": "nonpayable",
      "type": "function"
    },
    {
      "constant": true,
      "inputs": [
        {
          "name": "_tokenId",
          "type": "uint256"
        }
      ],
      "name": "exists",
      "outputs": [
        {
          "name": "",
          "type": "bool"
        }
      ],
      "payable": false,
      "stateMutability": "view",
      "type": "function"
    },
    {
      "constant": true,
      "inputs": [
        {
          "name": "_index",
          "type": "uint256"
        }
      ],
      "name": "tokenByIndex",
      "outputs": [
        {
          "name": "",
          "type": "uint256"
        }
      ],
      "payable": false,
      "stateMutability": "view",
      "type": "function"
    },
    {
      "constant": true,
      "inputs": [
        {
          "name": "_tokenId",
          "type": "uint256"
        }
      ],
      "name": "ownerOf",
      "outputs": [
        {
          "name": "",
          "type": "address"
        }
      ],
      "payable": false,
      "stateMutability": "view",
      "type": "function"
    },
    {
      "constant": true,
      "inputs": [
        {
          "name": "_owner",
          "type": "address"
        }
      ],
      "name": "balanceOf",
      "outputs": [
        {
          "name": "",
          "type": "uint256"
        }
      ],
      "payable": false,
      "stateMutability": "view",
      "type": "function"
    },
    {
      "constant": true,
      "inputs": [],
      "name": "symbol",
      "outputs": [
        {
          "name": "",
          "type": "string"
        }
      ],
      "payable": false,
      "stateMutability": "view",
      "type": "function"
    },
    {
      "constant": false,
      "inputs": [
        {
          "name": "_to",
          "type": "address"
        },
        {
          "name": "_approved",
          "type": "bool"
        }
      ],
      "name": "setApprovalForAll",
      "outputs": [],
      "payable": false,
      "stateMutability": "nonpayable",
      "type": "function"
    },
    {
      "constant": true,
      "inputs": [],
      "name": "reservationContract",
      "outputs": [
        {
          "name": "",
          "type": "address"
        }
      ],
      "payable": false,
      "stateMutability": "view",
      "type": "function"
    },
    {
      "constant": false,
      "inputs": [
        {
          "name": "_from",
          "type": "address"
        },
        {
          "name": "_to",
          "type": "address"
        },
        {
          "name": "_tokenId",
          "type": "uint256"
        },
        {
          "name": "_data",
          "type": "bytes"
        }
      ],
      "name": "safeTransferFrom",
      "outputs": [],
      "payable": false,
      "stateMutability": "nonpayable",
      "type": "function"
    },
    {
      "constant": true,
      "inputs": [
        {
          "name": "_tokenId",
          "type": "uint256"
        }
      ],
      "name": "tokenURI",
      "outputs": [
        {
          "name": "",
          "type": "string"
        }
      ],
      "payable": false,
      "stateMutability": "view",
      "type": "function"
    },
    {
      "constant": true,
      "inputs": [
        {
          "name": "_owner",
          "type": "address"
        },
        {
          "name": "_operator",
          "type": "address"
        }
      ],
      "name": "isApprovedForAll",
      "outputs": [
        {
          "name": "",
          "type": "bool"
        }
      ],
      "payable": false,
      "stateMutability": "view",
      "type": "function"
    },
    {
      "inputs": [],
      "payable": false,
      "stateMutability": "nonpayable",
      "type": "constructor"
    },
    {
      "anonymous": false,
      "inputs": [
        {
          "indexed": true,
          "name": "_from",
          "type": "address"
        },
        {
          "indexed": true,
          "name": "_to",
          "type": "address"
        },
        {
          "indexed": false,
          "name": "_tokenId",
          "type": "uint256"
        }
      ],
      "name": "Transfer",
      "type": "event"
    },
    {
      "anonymous": false,
      "inputs": [
        {
          "indexed": true,
          "name": "_owner",
          "type": "address"
        },
        {
          "indexed": true,
          "name": "_approved",
          "type": "address"
        },
        {
          "indexed": false,
          "name": "_tokenId",
          "type": "uint256"
        }
      ],
      "name": "Approval",
      "type": "event"
    },
    {
      "anonymous": false,
      "inputs": [
        {
          "indexed": true,
          "name": "_owner",
          "type": "address"
        },
        {
          "indexed": true,
          "name": "_operator",
          "type": "address"
        },
        {
          "indexed": false,
          "name": "_approved",
          "type": "bool"
        }
      ],
      "name": "ApprovalForAll",
      "type": "event"
    },
    {
      "constant": false,
      "inputs": [],
      "name": "mint",
      "outputs": [],
      "payable": false,
      "stateMutability": "nonpayable",
      "type": "function"
    },
    {
      "constant": false,
      "inputs": [
        {
          "name": "_tokenId",
          "type": "uint256"
        }
      ],
      "name": "burn",
      "outputs": [],
      "payable": false,
      "stateMutability": "nonpayable",
      "type": "function"
    },
    {
      "constant": true,
      "inputs": [
        {
          "name": "_tokenId",
          "type": "uint256"
        },
        {
          "name": "_start",
          "type": "uint256"
        },
        {
          "name": "_stop",
          "type": "uint256"
        }
      ],
      "name": "isAvailable",
      "outputs": [
        {
          "name": "",
          "type": "bool"
        }
      ],
      "payable": false,
      "stateMutability": "view",
      "type": "function"
    },
    {
      "constant": false,
      "inputs": [
        {
          "name": "_tokenId",
          "type": "uint256"
        },
        {
          "name": "_start",
          "type": "uint256"
        },
        {
          "name": "_stop",
          "type": "uint256"
        }
      ],
      "name": "reserve",
      "outputs": [
        {
          "name": "",
          "type": "uint256"
        }
      ],
      "payable": false,
      "stateMutability": "nonpayable",
      "type": "function"
    },
    {
      "constant": false,
      "inputs": [
        {
          "name": "_tokenId",
          "type": "uint256"
        },
        {
          "name": "_start",
          "type": "uint256"
        },
        {
          "name": "_stop",
          "type": "uint256"
        }
      ],
      "name": "cancelAll",
      "outputs": [
        {
          "name": "",
          "type": "uint256"
        }
      ],
      "payable": false,
      "stateMutability": "nonpayable",
      "type": "function"
    },
    {
      "constant": false,
      "inputs": [
        {
          "name": "_tokenId",
          "type": "uint256"
        },
        {
          "name": "_reservationId",
          "type": "uint256"
        }
      ],
      "name": "cancel",
      "outputs": [],
      "payable": false,
      "stateMutability": "nonpayable",
      "type": "function"
    },
    {
      "constant": true,
      "inputs": [
        {
          "name": "_tokenId",
          "type": "uint256"
        },
        {
          "name": "_timestamp",
          "type": "uint256"
        }
      ],
      "name": "renterOf",
      "outputs": [
        {
          "name": "",
          "type": "address"
        }
      ],
      "payable": false,
      "stateMutability": "view",
      "type": "function"
    }
  ],
  "bytecode": "0x60806040523480156200001157600080fd5b50604080518082018252600881527f43616c656e64617200000000000000000000000000000000000000000000000060208083019182528351808501909452600384527f43414c00000000000000000000000000000000000000000000000000000000009084015281519192916200008c91600491620000f3565b508051620000a2906005906020840190620000f3565b505050620000af62000178565b604051809103906000f080158015620000cc573d6000803e3d6000fd5b50600d8054600160a060020a031916600160a060020a0392909216919091179055620001a9565b828054600181600116156101000203166002900490600052602060002090601f016020900481019282601f106200013657805160ff191683800117855562000166565b8280016001018555821562000166579182015b828111156200016657825182559160200191906001019062000149565b506200017492915062000189565b5090565b6040516116b58062002c0583390190565b620001a691905b8082111562000174576000815560010162000190565b90565b612a4c80620001b96000396000f3006080604052600436106101525763ffffffff7c0100000000000000000000000000000000000000000000000000000000600035041662efa895811461015757806306fdde0314610174578063074193e6146101fe578063081812fc1461022f578063095ea7b3146102635780631249c58b1461028757806318160ddd1461029c57806323b872dd146102c35780632f6e17fa146102ed5780632f745c591461030557806342842e0e1461032957806342966c68146103535780634f558e791461036b5780634f6ccce7146103975780636352211e146103af57806370a08231146103c757806395d89b41146103e8578063997d8b24146103fd57806399845ab61461041b578063a22cb46514610439578063a7f5736a1461045f578063abd5ac7e14610474578063b88d4fde1461048f578063c87b56dd146104fe578063d6920d3314610516578063e985e9c514610534575b600080fd5b34801561016357600080fd5b5061017260043560243561055b565b005b34801561018057600080fd5b5061018961085b565b6040805160208082528351818301528351919283929083019185019080838360005b838110156101c35781810151838201526020016101ab565b50505050905090810190601f1680156101f05780820380516001836020036101000a031916815260200191505b509250505060405180910390f35b34801561020a57600080fd5b506102166004356108f2565b6040805192835260208301919091528051918290030190f35b34801561023b57600080fd5b5061024760043561090e565b60408051600160a060020a039092168252519081900360200190f35b34801561026f57600080fd5b50610172600160a060020a0360043516602435610929565b34801561029357600080fd5b50610172610a1b565b3480156102a857600080fd5b506102b1610a2e565b60408051918252519081900360200190f35b3480156102cf57600080fd5b50610172600160a060020a0360043581169060243516604435610a34565b3480156102f957600080fd5b50610216600435610ae3565b34801561031157600080fd5b506102b1600160a060020a0360043516602435610aff565b34801561033557600080fd5b50610172600160a060020a0360043581169060243516604435610b4c565b34801561035f57600080fd5b50610172600435610b84565b34801561037757600080fd5b50610383600435610b91565b604080519115158252519081900360200190f35b3480156103a357600080fd5b506102b1600435610bae565b3480156103bb57600080fd5b50610247600435610be3565b3480156103d357600080fd5b506102b1600160a060020a0360043516610c0d565b3480156103f457600080fd5b50610189610c40565b34801561040957600080fd5b50610383600435602435604435610ca1565b34801561042757600080fd5b506102b1600435602435604435610d3b565b34801561044557600080fd5b50610172600160a060020a03600435166024351515610ed7565b34801561046b57600080fd5b50610247610f5b565b34801561048057600080fd5b50610247600435602435610f6a565b34801561049b57600080fd5b50604080516020601f60643560048181013592830184900484028501840190955281845261017294600160a060020a0381358116956024803590921695604435953695608494019181908401838280828437509497506110d29650505050505050565b34801561050a57600080fd5b50610189600435611111565b34801561052257600080fd5b506102b16004356024356044356111c6565b34801561054057600080fd5b50610383600160a060020a0360043581169060243516611427565b600d54604080517fc4534aa0000000000000000000000000000000000000000000000000000000008152600481018490529051600160a060020a03909216916000918291829182918291879163c4534aa09160248082019260209290919082900301818787803b1580156105ce57600080fd5b505af11580156105e2573d6000803e3d6000fd5b505050506040513d60208110156105f857600080fd5b5051604080517fa19da961000000000000000000000000000000000000000000000000000000008152600481018a90529051919650600160a060020a0388169163a19da961916024808201926020929091908290030181600087803b15801561066057600080fd5b505af1158015610674573d6000803e3d6000fd5b505050506040513d602081101561068a57600080fd5b5051604080517f24c310ea000000000000000000000000000000000000000000000000000000008152600481018a90529051919550600160a060020a038816916324c310ea916024808201926020929091908290030181600087803b1580156106f257600080fd5b505af1158015610706573d6000803e3d6000fd5b505050506040513d602081101561071c57600080fd5b5051925087831461078e57604080517f08c379a000000000000000000000000000000000000000000000000000000000815260206004820152601660248201527f43616c656e64617220696420697320696e76616c696400000000000000000000604482015290519081900360640190fd5b604080517f98590ef9000000000000000000000000000000000000000000000000000000008152336004820152602481018990529051600160a060020a038816916398590ef991604480830192600092919082900301818387803b1580156107f557600080fd5b505af1158015610809573d6000803e3d6000fd5b5050506000898152600b60209081526040808320600c909252909120909350915061083c9050828663ffffffff61145516565b5061084f9050818563ffffffff61145516565b50505050505050505050565b60048054604080516020601f60026000196101006001881615020190951694909404938401819004810282018101909252828152606093909290918301828280156108e75780601f106108bc576101008083540402835291602001916108e7565b820191906000526020600020905b8154815290600101906020018083116108ca57829003601f168201915b505050505090505b90565b600c602052600090815260409020600181015460029091015482565b600090815260016020526040902054600160a060020a031690565b600061093482610be3565b9050600160a060020a03838116908216141561094f57600080fd5b33600160a060020a038216148061096b575061096b8133611427565b151561097657600080fd5b60006109818361090e565b600160a060020a031614158061099f5750600160a060020a03831615155b15610a1657600082815260016020908152604091829020805473ffffffffffffffffffffffffffffffffffffffff1916600160a060020a03878116918217909255835186815293519093918516927f8c5be1e5ebec7d5bd14f71427d1e84f3dd0314c0f7b2291e5b200ac8c7c3b925928290030190a35b505050565b610a2c33610a27610a2e565b6117d3565b565b60085490565b80610a3f3382611822565b1515610a4a57600080fd5b600160a060020a0384161515610a5f57600080fd5b600160a060020a0383161515610a7457600080fd5b610a7e8483611881565b610a88848361192f565b610a928383611a68565b82600160a060020a031684600160a060020a03167fddf252ad1be2c89b69c2b068fc378daa952ba7f163c4a11628f55a4df523b3ef846040518082815260200191505060405180910390a350505050565b600b602052600090815260409020600181015460029091015482565b6000610b0a83610c0d565b8210610b1557600080fd5b600160a060020a0383166000908152600660205260409020805483908110610b3957fe5b9060005260206000200154905092915050565b80610b573382611822565b1515610b6257600080fd5b610b7e84848460206040519081016040528060008152506110d2565b50505050565b610b8e3382611ab1565b50565b600090815260208190526040902054600160a060020a0316151590565b6000610bb8610a2e565b8210610bc357600080fd5b6008805483908110610bd157fe5b90600052602060002001549050919050565b600081815260208190526040812054600160a060020a0316801515610c0757600080fd5b92915050565b6000600160a060020a0382161515610c2457600080fd5b50600160a060020a031660009081526002602052604090205490565b60058054604080516020601f60026000196101006001881615020190951694909404938401819004810282018101909252828152606093909290918301828280156108e75780601f106108bc576101008083540402835291602001916108e7565b6000838152600c602052604081208190819081908190610cc7908763ffffffff611bab16565b9195509093509150838015610cdc5750868210155b15610cea5760009450610d30565b6000888152600b60205260409020610d08908863ffffffff611c3f16565b9195509093509050838015610d1d5750858111155b15610d2b5760009450610d30565b600194505b505050509392505050565b6000806000610d4b868686610ca1565b1515610dde57604080517f08c379a000000000000000000000000000000000000000000000000000000000815260206004820152602c60248201527f546f6b656e20697320756e617661696c61626c6520647572696e67207468697360448201527f2074696d6520706572696f640000000000000000000000000000000000000000606482015290519081900360840190fd5b600d54604080517f2a92b01f0000000000000000000000000000000000000000000000000000000081523360048201526024810189905260448101889052606481018790529051600160a060020a0390921693508391632a92b01f916084808201926020929091908290030181600087803b158015610e5c57600080fd5b505af1158015610e70573d6000803e3d6000fd5b505050506040513d6020811015610e8657600080fd5b50516000878152600b60205260409020909150610eaa90868363ffffffff611caa16565b50506000868152600c60205260409020610ecb90858363ffffffff611caa16565b50909695505050505050565b600160a060020a038216331415610eed57600080fd5b336000818152600360209081526040808320600160a060020a03871680855290835292819020805460ff1916861515908117909155815190815290519293927f17307eab39ab6107e8899845ad3d59bd9653f200f220920489ca2b5937696c31929181900390910190a35050565b600d54600160a060020a031681565b6000828152600b6020526040812081808080610f8c858863ffffffff611bab16565b9195509350915083156110c75750600d54604080517fa19da961000000000000000000000000000000000000000000000000000000008152600481018490529051600160a060020a03909216918891839163a19da961916024808201926020929091908290030181600087803b15801561100557600080fd5b505af1158015611019573d6000803e3d6000fd5b505050506040513d602081101561102f57600080fd5b5051106110c75780600160a060020a0316636352211e836040518263ffffffff167c010000000000000000000000000000000000000000000000000000000002815260040180828152602001915050602060405180830381600087803b15801561109857600080fd5b505af11580156110ac573d6000803e3d6000fd5b505050506040513d60208110156110c257600080fd5b505195505b505050505092915050565b816110dd3382611822565b15156110e857600080fd5b6110f3858585610a34565b6110ff85858585611ce2565b151561110a57600080fd5b5050505050565b606061111c82610b91565b151561112757600080fd5b6000828152600a602090815260409182902080548351601f6002600019610100600186161502019093169290920491820184900484028101840190945280845290918301828280156111ba5780601f1061118f576101008083540402835291602001916111ba565b820191906000526020600020905b81548152906001019060200180831161119d57829003601f168201915b50505050509050919050565b6000838152600b60209081526040808320600c9092528220600d54600160a060020a0316600186858080611200888563ffffffff611c3f16565b919650945091505b84156114185785600160a060020a031663a19da961836040518263ffffffff167c010000000000000000000000000000000000000000000000000000000002815260040180828152602001915050602060405180830381600087803b15801561127057600080fd5b505af1158015611284573d6000803e3d6000fd5b505050506040513d602081101561129a57600080fd5b5051925089831180159061134c575033600160a060020a031686600160a060020a0316636352211e846040518263ffffffff167c010000000000000000000000000000000000000000000000000000000002815260040180828152602001915050602060405180830381600087803b15801561131557600080fd5b505af1158015611329573d6000803e3d6000fd5b505050506040513d602081101561133f57600080fd5b5051600160a060020a0316145b156113fc57604080517f98590ef9000000000000000000000000000000000000000000000000000000008152336004820152602481018490529051600160a060020a038816916398590ef991604480830192600092919082900301818387803b1580156113b857600080fd5b505af11580156113cc573d6000803e3d6000fd5b505050506113e3848961145590919063ffffffff16565b506113f69050878463ffffffff61145516565b50506001015b61140c888563ffffffff611e6b16565b91965094509150611208565b9b9a5050505050505050505050565b600160a060020a03918216600090815260036020908152604080832093909416825291909152205460ff1690565b6000806000806000806000806000806000808d6002015460001415156117c257600099508d600001600080815260200190815260200160002098508d6002015489600201600160ff166002811015156114aa57fe5b015560009750889650869550859450600193508392505b886002018460ff166002811015156114d557fe5b0154156116d4578997508896955060028088019060ff86169081106114f657fe5b015499508d60000160008b815260200190815260200160002098508392508c896000015410611526576000611529565b60015b89549094508d1415611539578894505b61154289611ec4565b15801561155757506115558e8a86611ee0565b155b156116cf5761156a8e8a86600103611ee0565b156115c75761157b8e8a8c87611ef5565b876002018460ff1660028110151561158f57fe5b015560028088019060ff85169081106115a457fe5b015497508d600001600089815260200190815260200160002096508392506116cf565b8d60006002808a019060ff6001889003169081106115e157fe5b0154815260200190815260200160002091506000826004015411156116cf5761160c8e836000611ee0565b15801561162257506116208e836001611ee0565b155b15611652576005808801805460ff199081166001179091558a8201805482169055908301805490911690556116cf565b60028601548814611664576001611667565b60005b90506116748e8385611ee0565b156116a0576116858e888a86611fda565b866002018260ff1660028110151561169957fe5b01556116c3565b6116ac8e888a86611ef5565b866002018260ff166002811015156116c057fe5b01555b6116cf8e8a8884612052565b6114c1565b60008560040154111561176f5760019b5084600101549a506116fa8e8a600001546120bc565b885485556001808a0154818701556002808b019186900360ff1690811061171d57fe5b0154876002018460ff1660028110151561173357fe5b015560008a815260208f905260408120818155600181018290559061175b6002830182612952565b5060006004820155600501805460ff191690555b600080805260208f905260409020600201600101548e6002018190555060008e6000016000808152602001908152602001600020600201600160ff166002811015156117b757fe5b01556117c28e6121b5565b505050505050505050509250929050565b6117dd82826121d9565b600880546000838152600960205260408120829055600182018355919091527ff3f7a9fe364faab93b216da50a3214154f22a0a2b415b23a84c8169e8b636ee3015550565b60008061182e83610be3565b905080600160a060020a031684600160a060020a03161480611869575083600160a060020a031661185e8461090e565b600160a060020a0316145b8061187957506118798185611427565b949350505050565b81600160a060020a031661189482610be3565b600160a060020a0316146118a757600080fd5b600081815260016020526040902054600160a060020a03161561192b576000818152600160209081526040808320805473ffffffffffffffffffffffffffffffffffffffff1916905580518481529051600160a060020a038616927f8c5be1e5ebec7d5bd14f71427d1e84f3dd0314c0f7b2291e5b200ac8c7c3b925928290030190a35b5050565b600080600061193e858561223d565b600084815260076020908152604080832054600160a060020a038916845260069092529091205490935061197990600163ffffffff6122d216565b600160a060020a0386166000908152600660205260409020805491935090839081106119a157fe5b90600052602060002001549050806006600087600160a060020a0316600160a060020a03168152602001908152602001600020848154811015156119e157fe5b6000918252602080832090910192909255600160a060020a0387168152600690915260408120805484908110611a1357fe5b6000918252602080832090910192909255600160a060020a0387168152600690915260409020805490611a4a906000198301612960565b50600093845260076020526040808520859055908452909220555050565b6000611a7483836122e4565b50600160a060020a039091166000908152600660209081526040808320805460018101825590845282842081018590559383526007909152902055565b6000806000611ac08585612373565b6000848152600a60205260409020546002600019610100600184161502019091160415611afe576000848152600a60205260408120611afe91612984565b600084815260096020526040902054600854909350611b2490600163ffffffff6122d216565b9150600882815481101515611b3557fe5b9060005260206000200154905080600884815481101515611b5257fe5b60009182526020822001919091556008805484908110611b6e57fe5b6000918252602090912001556008805490611b8d906000198301612960565b50600093845260096020526040808520859055908452909220555050565b60008080526020839052604080822060028501548352908220829182915b600081600401541115611c16578054861415611be757809150611c16565b8054861015611c0157611bfa87826123cc565b9050611c11565b809150611c0e87826123e1565b90505b611bc9565b600082600401541115611c36576001945081600001549350816001015492505b50509250925092565b60008080526020839052604080822060028501548352908220829182915b600081600401541115611c16578054861415611c7b57809150611c16565b8054861115611c9557611c8e87826123e1565b9050611ca5565b809150611ca287826123cc565b90505b611c5d565b6000806000611cba8686866123ef565b60018101549091508414611cd957600181810180549086905590935091505b50935093915050565b600080611cf785600160a060020a031661265c565b1515611d065760019150611e62565b84600160a060020a031663f0b9e5ba8786866040518463ffffffff167c01000000000000000000000000000000000000000000000000000000000281526004018084600160a060020a0316600160a060020a0316815260200183815260200180602001828103825283818151815260200191508051906020019080838360005b83811015611d9e578181015183820152602001611d86565b50505050905090810190601f168015611dcb5780820380516001836020036101000a031916815260200191505b50945050505050602060405180830381600087803b158015611dec57600080fd5b505af1158015611e00573d6000803e3d6000fd5b505050506040513d6020811015611e1657600080fd5b50517fffffffff0000000000000000000000000000000000000000000000000000000081167ff0b9e5ba0000000000000000000000000000000000000000000000000000000014925090505b50949350505050565b60008080526020839052604080822060028501548352908220829182915b600081600401541115611c165780548610611eaf57611ea887826123e1565b9050611ebf565b809150611ebc87826123cc565b90505b611e89565b6000808260040154118015610c075750506005015460ff161590565b6000611879611ef0858585612664565b611ec4565b600080846002018360010360ff16600281101515611f0f57fe5b01546000818152602088905260409020909250905060028082019060ff8516908110611f3757fe5b0154856002018460010360ff16600281101515611f5057fe5b01558360028083019060ff8616908110611f6657fe5b01556005808601805460ff199081169091559082018054909116600117905560008211611f9257600080fd5b6004808601549082015560008411611fa957600080fd5b611fb386866123e1565b60040154611fc187876123cc565b6004015401600101856004018190555050949350505050565b600060018290036120268680846002808a019060ff8716908110611ffa57fe5b01548152602001908152602001600020876002018460ff1660028110151561201e57fe5b015484611ef5565b856002018260ff1660028110151561203a57fe5b015561204886868686611ef5565b9695505050505050565b60058301805460ff19169055600061206b858484612664565b60058101805460ff191690559050600161208586836123cc565b600501805460ff191691151591909117905560016120a386836123e1565b600501805460ff19169115159190911790555050505050565b6000808052602083905260408082206003015480835291208115806120e357506004810154155b1561217557604080517f08c379a000000000000000000000000000000000000000000000000000000000815260206004820152602f60248201527f64656372656d656e742073686f756c64206e6f742062652063616c6c6564206f60448201527f6e20616e20656d70747920747265650000000000000000000000000000000000606482015290519081900360840190fd5b80548314610b7e5760048101805460001901905580548311156121a35761219c84826123e1565b90506121b0565b6121ad84826123cc565b90505b612175565b6002810154600090815260209190915260409020600501805460ff19166001179055565b600160a060020a03821615156121ee57600080fd5b6121f88282611a68565b604080518281529051600160a060020a038416916000917fddf252ad1be2c89b69c2b068fc378daa952ba7f163c4a11628f55a4df523b3ef9181900360200190a35050565b81600160a060020a031661225082610be3565b600160a060020a03161461226357600080fd5b600160a060020a03821660009081526002602052604090205461228d90600163ffffffff6122d216565b600160a060020a039092166000908152600260209081526040808320949094559181529081905220805473ffffffffffffffffffffffffffffffffffffffff19169055565b6000828211156122de57fe5b50900390565b600081815260208190526040902054600160a060020a03161561230657600080fd5b600081815260208181526040808320805473ffffffffffffffffffffffffffffffffffffffff1916600160a060020a03871690811790915583526002909152902054612353906001612694565b600160a060020a0390921660009081526002602052604090209190915550565b61237d8282611881565b612387828261192f565b604080518281529051600091600160a060020a038516917fddf252ad1be2c89b69c2b068fc378daa952ba7f163c4a11628f55a4df523b3ef9181900360200190a35050565b60006123da83836000612664565b9392505050565b60006123da83836001612664565b60008060008060008060008060008060008d600201546000141561242d576124188e8e8e6126a1565b8f6002016000829e5083919050555050612642565b600099508d600001600080815260200190815260200160002098508d6002015489600201600160ff1660028110151561246257fe5b01819055508d6002015497508d600001600089815260200190815260200160002096506000955088945088935060009250600091505b600487015415156124d8576124ae8e8e8e6126a1565b9098509650876002808b019060ff86169081106124c757fe5b01556124d38e8e6127f3565b6124e2565b6124e28e886128eb565b6124eb87611ec4565b80156124fb57506124fb89611ec4565b1561258e5760028401548614612512576001612515565b60005b9050886002018260ff1660028110151561252b57fe5b0154881415612563576125438e868885600103611ef5565b846002018260ff1660028110151561255757fe5b0155929350839261258e565b6125728e868885600103611fda565b846002018260ff1660028110151561258657fe5b015592975087925b86548d141561259f57869a506125f7565b86548392508d116125b15760006125b4565b60015b979996988a988a98975090959450925060028088019060ff85169081106125d757fe5b015497508d60000160008981526020019081526020016000209650612498565b600080805260208f905260409020600201600101548e6002018190555060008e6000016000808152602001908152602001600020600201600160ff1660028110151561263f57fe5b01555b61264b8e6121b5565b505050505050505050509392505050565b6000903b1190565b6000838160028086019060ff861690811061267b57fe5b0154815260200190815260200160002090509392505050565b81810182811015610c0757fe5b6000808460010154600019141561273f57604080517f08c379a000000000000000000000000000000000000000000000000000000000815260206004820152602960248201527f75696e74206f766572666c6f773a20756e61626c6520696e73657274206d6f7260448201527f6520656e74726965730000000000000000000000000000000000000000000000606482015290519081900360840190fd5b600180860180548201908190556040805160a08101825287815260208082018881528351808501855260008082528184018190528486019182526060850188905260808501819052868152928c90529390912082518155905194810194909455905191945091906127b690600280840191906129c8565b50606082015160048201556080909101516005909101805460ff191691151591909117905550600081815260209490945260409093209293915050565b60008080526020839052604080822060030154808352912081158061281a57506004810154155b156128ac57604080517f08c379a000000000000000000000000000000000000000000000000000000000815260206004820152602f60248201527f696e6372656d656e742073686f756c64206e6f742062652063616c6c6564206f60448201527f6e20616e20656d70747920747265650000000000000000000000000000000000606482015290519081900360840190fd5b80548314610b7e57600481018054600101905580548311156128d9576128d284826123e1565b90506128e6565b6128e384826123cc565b90505b6128ac565b6000806128f884846123cc565b915061290484846123e1565b905061290f82611ec4565b801561291f575061291f81611ec4565b15610b7e576005928301805460ff1990811690915591830180548316600190811790915592018054909116909117905550565b506000815560010160009055565b815481835581811115610a1657600083815260209020610a16918101908301612a06565b50805460018160011615610100020316600290046000825580601f106129aa5750610b8e565b601f016020900490600052602060002090810190610b8e9190612a06565b82600281019282156129f6579160200282015b828111156129f65782518255916020019190600101906129db565b50612a02929150612a06565b5090565b6108ef91905b80821115612a025760008155600101612a0c5600a165627a7a72305820877511e31273f439bc1a462123834eb941a42b7265a29c63f0ab56e6fd7ae078002960806040523480156200001157600080fd5b50604080518082018252600b81527f5265736572766174696f6e00000000000000000000000000000000000000000060208083019182528351808501909452600384527f52455a00000000000000000000000000000000000000000000000000000000009084015281519192916200008c91600491620000bd565b508051620000a2906005906020840190620000bd565b5050600b8054600160a060020a031916331790555062000162565b828054600181600116156101000203166002900490600052602060002090601f016020900481019282601f106200010057805160ff191683800117855562000130565b8280016001018555821562000130579182015b828111156200013057825182559160200191906001019062000113565b506200013e92915062000142565b5090565b6200015f91905b808211156200013e576000815560010162000149565b90565b61154380620001726000396000f30060806040526004361061013d5763ffffffff7c010000000000000000000000000000000000000000000000000000000060003504166306fdde038114610142578063081812fc146101cc578063095ea7b31461020057806318160ddd1461022657806323b872dd1461024d57806324c310ea146102775780632a92b01f1461028f5780632f745c59146102b957806342842e0e146102dd5780634f558e79146103075780634f6ccce7146103335780636352211e1461034b57806370a0823114610363578063715018a6146103845780638da5cb5b1461039957806395d89b41146103ae57806398590ef9146103c3578063a19da961146103e7578063a22cb465146103ff578063b88d4fde14610425578063c4534aa014610494578063c87b56dd146104ac578063e985e9c5146104c4578063f2fde38b146104eb575b600080fd5b34801561014e57600080fd5b5061015761050c565b6040805160208082528351818301528351919283929083019185019080838360005b83811015610191578181015183820152602001610179565b50505050905090810190601f1680156101be5780820380516001836020036101000a031916815260200191505b509250505060405180910390f35b3480156101d857600080fd5b506101e46004356105a3565b60408051600160a060020a039092168252519081900360200190f35b34801561020c57600080fd5b50610224600160a060020a03600435166024356105be565b005b34801561023257600080fd5b5061023b6106b0565b60408051918252519081900360200190f35b34801561025957600080fd5b50610224600160a060020a03600435811690602435166044356106b6565b34801561028357600080fd5b5061023b600435610765565b34801561029b57600080fd5b5061023b600160a060020a0360043516602435604435606435610777565b3480156102c557600080fd5b5061023b600160a060020a036004351660243561081d565b3480156102e957600080fd5b50610224600160a060020a036004358116906024351660443561086a565b34801561031357600080fd5b5061031f6004356108a2565b604080519115158252519081900360200190f35b34801561033f57600080fd5b5061023b6004356108bf565b34801561035757600080fd5b506101e46004356108f4565b34801561036f57600080fd5b5061023b600160a060020a036004351661091e565b34801561039057600080fd5b50610224610951565b3480156103a557600080fd5b506101e46109bf565b3480156103ba57600080fd5b506101576109ce565b3480156103cf57600080fd5b50610224600160a060020a0360043516602435610a2f565b3480156103f357600080fd5b5061023b600435610ac6565b34801561040b57600080fd5b50610224600160a060020a03600435166024351515610ad8565b34801561043157600080fd5b50604080516020601f60643560048181013592830184900484028501840190955281845261022494600160a060020a038135811695602480359092169560443595369560849401918190840183828082843750949750610b5c9650505050505050565b3480156104a057600080fd5b5061023b600435610b9b565b3480156104b857600080fd5b50610157600435610bad565b3480156104d057600080fd5b5061031f600160a060020a0360043581169060243516610c62565b3480156104f757600080fd5b50610224600160a060020a0360043516610c90565b60048054604080516020601f60026000196101006001881615020190951694909404938401819004810282018101909252828152606093909290918301828280156105985780601f1061056d57610100808354040283529160200191610598565b820191906000526020600020905b81548152906001019060200180831161057b57829003601f168201915b505050505090505b90565b600090815260016020526040902054600160a060020a031690565b60006105c9826108f4565b9050600160a060020a0383811690821614156105e457600080fd5b33600160a060020a038216148061060057506106008133610c62565b151561060b57600080fd5b6000610616836105a3565b600160a060020a03161415806106345750600160a060020a03831615155b156106ab57600082815260016020908152604091829020805473ffffffffffffffffffffffffffffffffffffffff1916600160a060020a03878116918217909255835186815293519093918516927f8c5be1e5ebec7d5bd14f71427d1e84f3dd0314c0f7b2291e5b200ac8c7c3b925928290030190a35b505050565b60085490565b806106c13382610cb3565b15156106cc57600080fd5b600160a060020a03841615156106e157600080fd5b600160a060020a03831615156106f657600080fd5b6107008483610d12565b61070a8483610dc0565b6107148383610ef9565b82600160a060020a031684600160a060020a03167fddf252ad1be2c89b69c2b068fc378daa952ba7f163c4a11628f55a4df523b3ef846040518082815260200191505060405180910390a350505050565b600c6020526000908152604090205481565b600b546000908190600160a060020a0316331461079357600080fd5b61079b6106b0565b90506107a78682610f42565b6000818152600c60209081526040808320889055600d8252808320879055600e82529182902085905581518781529081018390528151600160a060020a038916927f0c42492e9a23edb18d7a10ab834f9871ecd80970bffc97312a8a1c05b88e807d928290030190a28091505b50949350505050565b60006108288361091e565b821061083357600080fd5b600160a060020a038316600090815260066020526040902080548390811061085757fe5b9060005260206000200154905092915050565b806108753382610cb3565b151561088057600080fd5b61089c8484846020604051908101604052806000815250610b5c565b50505050565b600090815260208190526040902054600160a060020a0316151590565b60006108c96106b0565b82106108d457600080fd5b60088054839081106108e257fe5b90600052602060002001549050919050565b600081815260208190526040812054600160a060020a031680151561091857600080fd5b92915050565b6000600160a060020a038216151561093557600080fd5b50600160a060020a031660009081526002602052604090205490565b600b54600160a060020a0316331461096857600080fd5b600b54604051600160a060020a03909116907ff8df31144d9c2f0f6b59d69b8b98abd5459d07f2742c4df920b25aae33c6482090600090a2600b805473ffffffffffffffffffffffffffffffffffffffff19169055565b600b54600160a060020a031681565b60058054604080516020601f60026000196101006001881615020190951694909404938401819004810282018101909252828152606093909290918301828280156105985780601f1061056d57610100808354040283529160200191610598565b600b54600090600160a060020a03163314610a4957600080fd5b610a538383610f91565b506000818152600c60209081526040808320805490849055600d8352818420849055600e83528184209390935580518381529182018490528051600160a060020a038616927f0d7bc7218b0c3ca2b1d50182f86627af6beb765bcf913b56b332c000b18294ea92908290030190a2505050565b600e6020526000908152604090205481565b600160a060020a038216331415610aee57600080fd5b336000818152600360209081526040808320600160a060020a03871680855290835292819020805460ff1916861515908117909155815190815290519293927f17307eab39ab6107e8899845ad3d59bd9653f200f220920489ca2b5937696c31929181900390910190a35050565b81610b673382610cb3565b1515610b7257600080fd5b610b7d8585856106b6565b610b898585858561108b565b1515610b9457600080fd5b5050505050565b600d6020526000908152604090205481565b6060610bb8826108a2565b1515610bc357600080fd5b6000828152600a602090815260409182902080548351601f600260001961010060018616150201909316929092049182018490048402810184019094528084529091830182828015610c565780601f10610c2b57610100808354040283529160200191610c56565b820191906000526020600020905b815481529060010190602001808311610c3957829003601f168201915b50505050509050919050565b600160a060020a03918216600090815260036020908152604080832093909416825291909152205460ff1690565b600b54600160a060020a03163314610ca757600080fd5b610cb08161120f565b50565b600080610cbf836108f4565b905080600160a060020a031684600160a060020a03161480610cfa575083600160a060020a0316610cef846105a3565b600160a060020a0316145b80610d0a5750610d0a8185610c62565b949350505050565b81600160a060020a0316610d25826108f4565b600160a060020a031614610d3857600080fd5b600081815260016020526040902054600160a060020a031615610dbc576000818152600160209081526040808320805473ffffffffffffffffffffffffffffffffffffffff1916905580518481529051600160a060020a038616927f8c5be1e5ebec7d5bd14f71427d1e84f3dd0314c0f7b2291e5b200ac8c7c3b925928290030190a35b5050565b6000806000610dcf858561128d565b600084815260076020908152604080832054600160a060020a0389168452600690925290912054909350610e0a90600163ffffffff61132216565b600160a060020a038616600090815260066020526040902080549193509083908110610e3257fe5b90600052602060002001549050806006600087600160a060020a0316600160a060020a0316815260200190815260200160002084815481101515610e7257fe5b6000918252602080832090910192909255600160a060020a0387168152600690915260408120805484908110610ea457fe5b6000918252602080832090910192909255600160a060020a0387168152600690915260409020805490610edb906000198301611495565b50600093845260076020526040808520859055908452909220555050565b6000610f058383611334565b50600160a060020a039091166000908152600660209081526040808320805460018101825590845282842081018590559383526007909152902055565b610f4c82826113c3565b600880546000838152600960205260408120829055600182018355919091527ff3f7a9fe364faab93b216da50a3214154f22a0a2b415b23a84c8169e8b636ee3015550565b6000806000610fa08585611427565b6000848152600a60205260409020546002600019610100600184161502019091160415610fde576000848152600a60205260408120610fde916114b9565b60008481526009602052604090205460085490935061100490600163ffffffff61132216565b915060088281548110151561101557fe5b906000526020600020015490508060088481548110151561103257fe5b6000918252602082200191909155600880548490811061104e57fe5b600091825260209091200155600880549061106d906000198301611495565b50600093845260096020526040808520859055908452909220555050565b6000806110a085600160a060020a0316611480565b15156110af5760019150610814565b84600160a060020a031663f0b9e5ba8786866040518463ffffffff167c01000000000000000000000000000000000000000000000000000000000281526004018084600160a060020a0316600160a060020a0316815260200183815260200180602001828103825283818151815260200191508051906020019080838360005b8381101561114757818101518382015260200161112f565b50505050905090810190601f1680156111745780820380516001836020036101000a031916815260200191505b50945050505050602060405180830381600087803b15801561119557600080fd5b505af11580156111a9573d6000803e3d6000fd5b505050506040513d60208110156111bf57600080fd5b50517fffffffff00000000000000000000000000000000000000000000000000000000167ff0b9e5ba00000000000000000000000000000000000000000000000000000000149695505050505050565b600160a060020a038116151561122457600080fd5b600b54604051600160a060020a038084169216907f8be0079c531659141344cd1fd0a4f28419497f9722a3daafe3b4186f6b6457e090600090a3600b805473ffffffffffffffffffffffffffffffffffffffff1916600160a060020a0392909216919091179055565b81600160a060020a03166112a0826108f4565b600160a060020a0316146112b357600080fd5b600160a060020a0382166000908152600260205260409020546112dd90600163ffffffff61132216565b600160a060020a039092166000908152600260209081526040808320949094559181529081905220805473ffffffffffffffffffffffffffffffffffffffff19169055565b60008282111561132e57fe5b50900390565b600081815260208190526040902054600160a060020a03161561135657600080fd5b600081815260208181526040808320805473ffffffffffffffffffffffffffffffffffffffff1916600160a060020a038716908117909155835260029091529020546113a3906001611488565b600160a060020a0390921660009081526002602052604090209190915550565b600160a060020a03821615156113d857600080fd5b6113e28282610ef9565b604080518281529051600160a060020a038416916000917fddf252ad1be2c89b69c2b068fc378daa952ba7f163c4a11628f55a4df523b3ef9181900360200190a35050565b6114318282610d12565b61143b8282610dc0565b604080518281529051600091600160a060020a038516917fddf252ad1be2c89b69c2b068fc378daa952ba7f163c4a11628f55a4df523b3ef9181900360200190a35050565b6000903b1190565b8181018281101561091857fe5b8154818355818111156106ab576000838152602090206106ab9181019083016114f9565b50805460018160011615610100020316600290046000825580601f106114df5750610cb0565b601f016020900490600052602060002090810190610cb091905b6105a091905b8082111561151357600081556001016114ff565b50905600a165627a7a72305820e8bb65a8e7a82c067cb72cc48e5ae1aa4140f20501904e9a37161d62ea950b310029",
  "source": "pragma solidity ^0.4.24;\n\nimport \"openzeppelin-solidity/contracts/token/ERC721/ERC721Token.sol\";\nimport \"solidity-treemap/contracts/TreeMap.sol\";\nimport \"./Reservation.sol\";\nimport \"./ERC809.sol\";\n\n\ncontract Calendar is ERC721Token, ERC809 {\n  using TreeMap for TreeMap.Map;\n\n  // mapping of token(calendar) id to mapping from start/end timestamp of a reservation to its id\n  mapping(uint256 => TreeMap.Map) public startTimestampsMap;\n  mapping(uint256 => TreeMap.Map) public stopTimestampsMap;\n\n  // address of the ERC721 contract tokenizing reseravation/access of this contract's token\n  address public reservationContract;\n\n  constructor() public ERC721Token(\"Calendar\", \"CAL\") {\n    reservationContract = new Reservation();\n  }\n\n  /// @notice Create a new calendar token\n  function mint()\n  public\n  {\n    super._mint(msg.sender, totalSupply());\n  }\n\n  /// @notice Destroy a calendar token\n  /// TODO: figure out what to do when there are expired and/or outstanding reservations\n  function burn(uint256 _tokenId)\n  public\n  {\n    super._burn(msg.sender, _tokenId);\n  }\n\n  /// @notice Query if token `_tokenId` if available to reserve between `_start` and `_stop` time\n  /// @dev For the requested token, we examine its current resertions, check\n  ///   1. whether the last reservation that has `startTime` before `_start` already ended before `_start`\n  ///                Okay                            Bad\n  ///           *startTime*   stopTime        *startTime*   stopTime\n  ///             |---------|                  |---------|\n  ///                          |-------               |-------\n  ///                          _start                 _start\n  ///   2. whether the soonest reservation that has `endTime` after `_end` will start after `_end`.\n  ///                Okay                            Bad\n  ///          startTime   *stopTime*         startTime   *stopTime*\n  ///             |---------|                  |---------|\n  ///    -------|                           -------|\n  ///           _stop                              _stop\n  ///\n  //   NB: reservation interval are [start time, stop time] i.e. closed on both ends.\n  function isAvailable(uint256 _tokenId, uint256 _start, uint256 _stop)\n  public\n  view\n  returns(bool)\n  {\n    bool found;\n    uint256 reservationId;\n\n    uint256 stopTime;\n    (found, stopTime, reservationId) = stopTimestampsMap[_tokenId].floorEntry(_stop);\n    if (found && stopTime >= _start) {\n      return false;\n    }\n\n    uint256 startTime;\n    (found, startTime, reservationId) = startTimestampsMap[_tokenId].ceilingEntry(_start);\n    if (found && startTime <= _stop) {\n      return false;\n    }\n\n    return true;\n  }\n\n  /// @notice Reserve access to token `_tokenId` from time `_start` to time `_stop`\n  /// @dev A successful reservation must ensure each time slot in the range _start to _stop\n  ///  is not previously reserved.\n  function reserve(uint256 _tokenId, uint256 _start, uint256 _stop)\n  public\n  returns(uint256)\n  {\n    if (!isAvailable(_tokenId, _start, _stop)) {\n      revert(\"Token is unavailable during this time period\");\n    }\n\n    Reservation reservation = Reservation(reservationContract);\n    uint256 reservationId = reservation.reserve(msg.sender, _tokenId, _start, _stop);\n    startTimestampsMap[_tokenId].put(_start, reservationId);\n    stopTimestampsMap[_tokenId].put(_stop, reservationId);\n\n    return reservationId;\n  }\n\n  /// @notice Cancel all reservations for `_tokenId` between `_start` and `_stop`\n  /// @return number of reservation that has been cancelled\n  function cancelAll(uint256 _tokenId, uint256 _start, uint256 _stop)\n  public\n  returns (uint256)\n  {\n    // TODO: implement iterator in TreeMap for more efficient batch removal\n    TreeMap.Map storage startTimestamps = startTimestampsMap[_tokenId];\n    TreeMap.Map storage stopTimestamps = stopTimestampsMap[_tokenId];\n    Reservation reservation = Reservation(reservationContract);\n\n    bool found = true;\n    uint256 startTime = _start;\n    uint256 stopTime;\n    uint256 reservationId;\n    uint256 cancelled = 0;\n    // FIXME: a token could also have a `renter => startTimestamps` mapping to skip\n    //   reservations that don't belong to a renter more efficiently\n    (found, startTime, reservationId) = startTimestamps.ceilingEntry(startTime);\n    while (found) {\n      stopTime = reservation.stopTimestamps(reservationId);\n      if (stopTime <= _stop && reservation.ownerOf(reservationId) == msg.sender) {\n        reservation.cancel(msg.sender, reservationId);\n        startTimestamps.remove(startTime);\n        stopTimestamps.remove(stopTime);\n\n        cancelled++;\n      }\n\n      (found, startTime, reservationId) = startTimestamps.higherEntry(startTime);\n    }\n\n    return cancelled;\n  }\n\n  function cancel(uint256 _tokenId, uint256 _reservationId)\n  public\n  {\n    Reservation reservation = Reservation(reservationContract);\n\n    uint256 startTime = reservation.startTimestamps(_reservationId);\n    uint256 stopTime = reservation.stopTimestamps(_reservationId);\n    uint256 calendarId = reservation.calendarIds(_reservationId);\n    if (calendarId != _tokenId) {\n      revert(\"Calendar id is invalid\");\n    }\n\n    reservation.cancel(msg.sender, _reservationId);\n\n    TreeMap.Map storage startTimestamps = startTimestampsMap[_tokenId];\n    TreeMap.Map storage stopTimestamps = stopTimestampsMap[_tokenId];\n    startTimestamps.remove(startTime);\n    stopTimestamps.remove(stopTime);\n  }\n\n  function renterOf(uint256 _tokenId, uint256 _timestamp)\n  public\n  view\n  returns (address)\n  {\n    TreeMap.Map storage startTimestamps = startTimestampsMap[_tokenId];\n\n    // find the last reservation that started before _timestamp\n    bool found;\n    uint256 startTime;\n    uint256 reservationId;\n    (found, startTime, reservationId) = startTimestamps.floorEntry(_timestamp);\n\n    if (found) {\n      Reservation reservation = Reservation(reservationContract);\n      // verify the reservation ends after _timestamp\n      if (reservation.stopTimestamps(reservationId) >= _timestamp) {\n        return reservation.ownerOf(reservationId);\n      }\n    }\n  }\n}\n",
  "sourcePath": "/Users/saurfang/workspace/meeth/contracts/Calendar.sol",
  "compiler": {
    "name": "solc",
    "version": "0.4.24+commit.e67f0147.Emscripten.clang"
  },
  "schemaVersion": "2.0.1",
  "updatedAt": "2018-07-09T06:17:29.911Z"
}