{
  "contractName": "Calendar",
  "abi": [
    {
      "constant": true,
      "inputs": [
        {
          "name": "_interfaceId",
          "type": "bytes4"
        }
      ],
      "name": "supportsInterface",
      "outputs": [
        {
          "name": "",
          "type": "bool"
        }
      ],
      "payable": false,
      "stateMutability": "view",
      "type": "function"
    },
    {
      "constant": true,
      "inputs": [],
      "name": "name",
      "outputs": [
        {
          "name": "",
          "type": "string"
        }
      ],
      "payable": false,
      "stateMutability": "view",
      "type": "function"
    },
    {
      "constant": true,
      "inputs": [
        {
          "name": "_tokenId",
          "type": "uint256"
        }
      ],
      "name": "getApproved",
      "outputs": [
        {
          "name": "",
          "type": "address"
        }
      ],
      "payable": false,
      "stateMutability": "view",
      "type": "function"
    },
    {
      "constant": false,
      "inputs": [
        {
          "name": "_to",
          "type": "address"
        },
        {
          "name": "_tokenId",
          "type": "uint256"
        }
      ],
      "name": "approve",
      "outputs": [],
      "payable": false,
      "stateMutability": "nonpayable",
      "type": "function"
    },
    {
      "constant": true,
      "inputs": [],
      "name": "totalSupply",
      "outputs": [
        {
          "name": "",
          "type": "uint256"
        }
      ],
      "payable": false,
      "stateMutability": "view",
      "type": "function"
    },
    {
      "constant": true,
      "inputs": [],
      "name": "InterfaceId_ERC165",
      "outputs": [
        {
          "name": "",
          "type": "bytes4"
        }
      ],
      "payable": false,
      "stateMutability": "view",
      "type": "function"
    },
    {
      "constant": false,
      "inputs": [
        {
          "name": "_from",
          "type": "address"
        },
        {
          "name": "_to",
          "type": "address"
        },
        {
          "name": "_tokenId",
          "type": "uint256"
        }
      ],
      "name": "transferFrom",
      "outputs": [],
      "payable": false,
      "stateMutability": "nonpayable",
      "type": "function"
    },
    {
      "constant": true,
      "inputs": [
        {
          "name": "",
          "type": "uint256"
        }
      ],
      "name": "startTimestampsMap",
      "outputs": [
        {
          "name": "entriesLength",
          "type": "uint256"
        },
        {
          "name": "rootIdx",
          "type": "uint256"
        }
      ],
      "payable": false,
      "stateMutability": "view",
      "type": "function"
    },
    {
      "constant": true,
      "inputs": [
        {
          "name": "_owner",
          "type": "address"
        },
        {
          "name": "_index",
          "type": "uint256"
        }
      ],
      "name": "tokenOfOwnerByIndex",
      "outputs": [
        {
          "name": "",
          "type": "uint256"
        }
      ],
      "payable": false,
      "stateMutability": "view",
      "type": "function"
    },
    {
      "constant": false,
      "inputs": [],
      "name": "unpause",
      "outputs": [],
      "payable": false,
      "stateMutability": "nonpayable",
      "type": "function"
    },
    {
      "constant": false,
      "inputs": [
        {
          "name": "_from",
          "type": "address"
        },
        {
          "name": "_to",
          "type": "address"
        },
        {
          "name": "_tokenId",
          "type": "uint256"
        }
      ],
      "name": "safeTransferFrom",
      "outputs": [],
      "payable": false,
      "stateMutability": "nonpayable",
      "type": "function"
    },
    {
      "constant": true,
      "inputs": [
        {
          "name": "_tokenId",
          "type": "uint256"
        }
      ],
      "name": "exists",
      "outputs": [
        {
          "name": "",
          "type": "bool"
        }
      ],
      "payable": false,
      "stateMutability": "view",
      "type": "function"
    },
    {
      "constant": true,
      "inputs": [
        {
          "name": "_index",
          "type": "uint256"
        }
      ],
      "name": "tokenByIndex",
      "outputs": [
        {
          "name": "",
          "type": "uint256"
        }
      ],
      "payable": false,
      "stateMutability": "view",
      "type": "function"
    },
    {
      "constant": true,
      "inputs": [],
      "name": "paused",
      "outputs": [
        {
          "name": "",
          "type": "bool"
        }
      ],
      "payable": false,
      "stateMutability": "view",
      "type": "function"
    },
    {
      "constant": true,
      "inputs": [
        {
          "name": "_tokenId",
          "type": "uint256"
        }
      ],
      "name": "ownerOf",
      "outputs": [
        {
          "name": "",
          "type": "address"
        }
      ],
      "payable": false,
      "stateMutability": "view",
      "type": "function"
    },
    {
      "constant": true,
      "inputs": [
        {
          "name": "_owner",
          "type": "address"
        }
      ],
      "name": "balanceOf",
      "outputs": [
        {
          "name": "",
          "type": "uint256"
        }
      ],
      "payable": false,
      "stateMutability": "view",
      "type": "function"
    },
    {
      "constant": false,
      "inputs": [],
      "name": "renounceOwnership",
      "outputs": [],
      "payable": false,
      "stateMutability": "nonpayable",
      "type": "function"
    },
    {
      "constant": false,
      "inputs": [],
      "name": "pause",
      "outputs": [],
      "payable": false,
      "stateMutability": "nonpayable",
      "type": "function"
    },
    {
      "constant": true,
      "inputs": [],
      "name": "owner",
      "outputs": [
        {
          "name": "",
          "type": "address"
        }
      ],
      "payable": false,
      "stateMutability": "view",
      "type": "function"
    },
    {
      "constant": true,
      "inputs": [],
      "name": "symbol",
      "outputs": [
        {
          "name": "",
          "type": "string"
        }
      ],
      "payable": false,
      "stateMutability": "view",
      "type": "function"
    },
    {
      "constant": false,
      "inputs": [
        {
          "name": "_to",
          "type": "address"
        },
        {
          "name": "_approved",
          "type": "bool"
        }
      ],
      "name": "setApprovalForAll",
      "outputs": [],
      "payable": false,
      "stateMutability": "nonpayable",
      "type": "function"
    },
    {
      "constant": true,
      "inputs": [],
      "name": "reservationContract",
      "outputs": [
        {
          "name": "",
          "type": "address"
        }
      ],
      "payable": false,
      "stateMutability": "view",
      "type": "function"
    },
    {
      "constant": false,
      "inputs": [
        {
          "name": "_from",
          "type": "address"
        },
        {
          "name": "_to",
          "type": "address"
        },
        {
          "name": "_tokenId",
          "type": "uint256"
        },
        {
          "name": "_data",
          "type": "bytes"
        }
      ],
      "name": "safeTransferFrom",
      "outputs": [],
      "payable": false,
      "stateMutability": "nonpayable",
      "type": "function"
    },
    {
      "constant": true,
      "inputs": [
        {
          "name": "_tokenId",
          "type": "uint256"
        }
      ],
      "name": "tokenURI",
      "outputs": [
        {
          "name": "",
          "type": "string"
        }
      ],
      "payable": false,
      "stateMutability": "view",
      "type": "function"
    },
    {
      "constant": true,
      "inputs": [
        {
          "name": "_owner",
          "type": "address"
        },
        {
          "name": "_operator",
          "type": "address"
        }
      ],
      "name": "isApprovedForAll",
      "outputs": [
        {
          "name": "",
          "type": "bool"
        }
      ],
      "payable": false,
      "stateMutability": "view",
      "type": "function"
    },
    {
      "constant": false,
      "inputs": [
        {
          "name": "_newOwner",
          "type": "address"
        }
      ],
      "name": "transferOwnership",
      "outputs": [],
      "payable": false,
      "stateMutability": "nonpayable",
      "type": "function"
    },
    {
      "inputs": [],
      "payable": false,
      "stateMutability": "nonpayable",
      "type": "constructor"
    },
    {
      "anonymous": false,
      "inputs": [],
      "name": "Pause",
      "type": "event"
    },
    {
      "anonymous": false,
      "inputs": [],
      "name": "Unpause",
      "type": "event"
    },
    {
      "anonymous": false,
      "inputs": [
        {
          "indexed": true,
          "name": "previousOwner",
          "type": "address"
        }
      ],
      "name": "OwnershipRenounced",
      "type": "event"
    },
    {
      "anonymous": false,
      "inputs": [
        {
          "indexed": true,
          "name": "previousOwner",
          "type": "address"
        },
        {
          "indexed": true,
          "name": "newOwner",
          "type": "address"
        }
      ],
      "name": "OwnershipTransferred",
      "type": "event"
    },
    {
      "anonymous": false,
      "inputs": [
        {
          "indexed": true,
          "name": "_from",
          "type": "address"
        },
        {
          "indexed": true,
          "name": "_to",
          "type": "address"
        },
        {
          "indexed": true,
          "name": "_tokenId",
          "type": "uint256"
        }
      ],
      "name": "Transfer",
      "type": "event"
    },
    {
      "anonymous": false,
      "inputs": [
        {
          "indexed": true,
          "name": "_owner",
          "type": "address"
        },
        {
          "indexed": true,
          "name": "_approved",
          "type": "address"
        },
        {
          "indexed": true,
          "name": "_tokenId",
          "type": "uint256"
        }
      ],
      "name": "Approval",
      "type": "event"
    },
    {
      "anonymous": false,
      "inputs": [
        {
          "indexed": true,
          "name": "_owner",
          "type": "address"
        },
        {
          "indexed": true,
          "name": "_operator",
          "type": "address"
        },
        {
          "indexed": false,
          "name": "_approved",
          "type": "bool"
        }
      ],
      "name": "ApprovalForAll",
      "type": "event"
    },
    {
      "constant": false,
      "inputs": [],
      "name": "mint",
      "outputs": [],
      "payable": false,
      "stateMutability": "nonpayable",
      "type": "function"
    },
    {
      "constant": false,
      "inputs": [
        {
          "name": "_tokenId",
          "type": "uint256"
        }
      ],
      "name": "burn",
      "outputs": [],
      "payable": false,
      "stateMutability": "nonpayable",
      "type": "function"
    },
    {
      "constant": true,
      "inputs": [
        {
          "name": "_tokenId",
          "type": "uint256"
        },
        {
          "name": "_start",
          "type": "uint256"
        },
        {
          "name": "_stop",
          "type": "uint256"
        }
      ],
      "name": "isAvailable",
      "outputs": [
        {
          "name": "",
          "type": "bool"
        }
      ],
      "payable": false,
      "stateMutability": "view",
      "type": "function"
    },
    {
      "constant": false,
      "inputs": [
        {
          "name": "_tokenId",
          "type": "uint256"
        },
        {
          "name": "_start",
          "type": "uint256"
        },
        {
          "name": "_stop",
          "type": "uint256"
        }
      ],
      "name": "reserve",
      "outputs": [
        {
          "name": "",
          "type": "uint256"
        }
      ],
      "payable": false,
      "stateMutability": "nonpayable",
      "type": "function"
    },
    {
      "constant": false,
      "inputs": [
        {
          "name": "_tokenId",
          "type": "uint256"
        },
        {
          "name": "_start",
          "type": "uint256"
        },
        {
          "name": "_stop",
          "type": "uint256"
        }
      ],
      "name": "cancelAll",
      "outputs": [
        {
          "name": "",
          "type": "uint256"
        }
      ],
      "payable": false,
      "stateMutability": "nonpayable",
      "type": "function"
    },
    {
      "constant": false,
      "inputs": [
        {
          "name": "_tokenId",
          "type": "uint256"
        },
        {
          "name": "_reservationId",
          "type": "uint256"
        }
      ],
      "name": "cancel",
      "outputs": [],
      "payable": false,
      "stateMutability": "nonpayable",
      "type": "function"
    },
    {
      "constant": true,
      "inputs": [
        {
          "name": "_tokenId",
          "type": "uint256"
        },
        {
          "name": "_timestamp",
          "type": "uint256"
        }
      ],
      "name": "renterOf",
      "outputs": [
        {
          "name": "",
          "type": "address"
        }
      ],
      "payable": false,
      "stateMutability": "view",
      "type": "function"
    },
    {
      "constant": true,
      "inputs": [
        {
          "name": "_tokenId",
          "type": "uint256"
        }
      ],
      "name": "reservationBalanceOf",
      "outputs": [
        {
          "name": "",
          "type": "uint256"
        }
      ],
      "payable": false,
      "stateMutability": "view",
      "type": "function"
    },
    {
      "constant": true,
      "inputs": [
        {
          "name": "_tokenId",
          "type": "uint256"
        },
        {
          "name": "_index",
          "type": "uint256"
        }
      ],
      "name": "reservationOfCalendarByIndex",
      "outputs": [
        {
          "name": "reservationId",
          "type": "uint256"
        },
        {
          "name": "startTime",
          "type": "uint256"
        },
        {
          "name": "stopTime",
          "type": "uint256"
        },
        {
          "name": "owner",
          "type": "address"
        }
      ],
      "payable": false,
      "stateMutability": "view",
      "type": "function"
    },
    {
      "constant": true,
      "inputs": [
        {
          "name": "_owner",
          "type": "address"
        },
        {
          "name": "_index",
          "type": "uint256"
        }
      ],
      "name": "reservationOfOwnerByIndex",
      "outputs": [
        {
          "name": "reservationId",
          "type": "uint256"
        },
        {
          "name": "startTime",
          "type": "uint256"
        },
        {
          "name": "stopTime",
          "type": "uint256"
        },
        {
          "name": "calendarId",
          "type": "uint256"
        }
      ],
      "payable": false,
      "stateMutability": "view",
      "type": "function"
    }
  ],
  "bytecode": "0x6080604052600c805460a060020a60ff02191690553480156200002157600080fd5b50604080518082018252600881527f43616c656e6461720000000000000000000000000000000000000000000000006020808301919091528251808401909352600383527f43414c00000000000000000000000000000000000000000000000000000000009083015290620000bf7f01ffc9a7000000000000000000000000000000000000000000000000000000006401000000006200021d810204565b620000f37f80ac58cd000000000000000000000000000000000000000000000000000000006401000000006200021d810204565b620001277f4f558e79000000000000000000000000000000000000000000000000000000006401000000006200021d810204565b81516200013c9060059060208501906200028a565b508051620001529060069060208401906200028a565b50620001877f780e9d63000000000000000000000000000000000000000000000000000000006401000000006200021d810204565b620001bb7f5b5e139f000000000000000000000000000000000000000000000000000000006401000000006200021d810204565b5050600c8054600160a060020a03191633179055620001d96200030f565b604051809103906000f080158015620001f6573d6000803e3d6000fd5b50600e8054600160a060020a031916600160a060020a039290921691909117905562000340565b7fffffffff0000000000000000000000000000000000000000000000000000000080821614156200024d57600080fd5b7fffffffff00000000000000000000000000000000000000000000000000000000166000908152602081905260409020805460ff19166001179055565b828054600181600116156101000203166002900490600052602060002090601f016020900481019282601f10620002cd57805160ff1916838001178555620002fd565b82800160010185558215620002fd579182015b82811115620002fd578251825591602001919060010190620002e0565b506200030b92915062000320565b5090565b60405161182880620037a383390190565b6200033d91905b808211156200030b576000815560010162000327565b90565b61345380620003506000396000f3006080604052600436106101c05763ffffffff7c0100000000000000000000000000000000000000000000000000000000600035041662efa89581146101c557806301ffc9a7146101e257806306fdde031461022d578063081812fc146102b7578063095ea7b3146102eb5780631249c58b1461030f57806318160ddd14610324578063189c05b61461034b57806319fa8f501461039557806323b872dd146103dc5780632f6e17fa146104065780632f745c59146104375780633f4ba83a1461045b57806342842e0e1461047057806342966c681461049a5780634f558e79146104b25780634f6ccce7146104ca5780635c975abb146104e25780636352211e146104f757806370a082311461050f578063715018a6146105305780638456cb59146105455780638da5cb5b1461055a5780638df749091461056f57806395d89b4114610587578063997d8b241461059c57806399845ab6146105ba578063a22cb465146105d8578063a7f5736a146105fe578063a9b7575f14610613578063abd5ac7e1461065d578063b88d4fde14610678578063c87b56dd146106e7578063d6920d33146106ff578063e985e9c51461071d578063f2fde38b14610744575b600080fd5b3480156101d157600080fd5b506101e0600435602435610765565b005b3480156101ee57600080fd5b506102197bffffffffffffffffffffffffffffffffffffffffffffffffffffffff1960043516610a2a565b604080519115158252519081900360200190f35b34801561023957600080fd5b50610242610a5e565b6040805160208082528351818301528351919283929083019185019080838360005b8381101561027c578181015183820152602001610264565b50505050905090810190601f1680156102a95780820380516001836020036101000a031916815260200191505b509250505060405180910390f35b3480156102c357600080fd5b506102cf600435610af5565b60408051600160a060020a039092168252519081900360200190f35b3480156102f757600080fd5b506101e0600160a060020a0360043516602435610b10565b34801561031b57600080fd5b506101e0610bc6565b34801561033057600080fd5b50610339610c01565b60408051918252519081900360200190f35b34801561035757600080fd5b50610366600435602435610c07565b60408051948552602085019390935283830191909152600160a060020a03166060830152519081900360800190f35b3480156103a157600080fd5b506103aa610dc5565b604080517bffffffffffffffffffffffffffffffffffffffffffffffffffffffff199092168252519081900360200190f35b3480156103e857600080fd5b506101e0600160a060020a0360043581169060243516604435610de9565b34801561041257600080fd5b5061041e600435610e8c565b6040805192835260208301919091528051918290030190f35b34801561044357600080fd5b50610339600160a060020a0360043516602435610ea8565b34801561046757600080fd5b506101e0610ef5565b34801561047c57600080fd5b506101e0600160a060020a0360043581169060243516604435610f7e565b3480156104a657600080fd5b506101e0600435610f9f565b3480156104be57600080fd5b50610219600435610fd4565b3480156104d657600080fd5b50610339600435610ff1565b3480156104ee57600080fd5b50610219611026565b34801561050357600080fd5b506102cf600435611047565b34801561051b57600080fd5b50610339600160a060020a0360043516611071565b34801561053c57600080fd5b506101e06110a4565b34801561055157600080fd5b506101e0611112565b34801561056657600080fd5b506102cf6111b1565b34801561057b57600080fd5b506103396004356111c0565b34801561059357600080fd5b506102426111d7565b3480156105a857600080fd5b50610219600435602435604435611238565b3480156105c657600080fd5b50610339600435602435604435611363565b3480156105e457600080fd5b506101e0600160a060020a0360043516602435151561155a565b34801561060a57600080fd5b506102cf6115de565b34801561061f57600080fd5b50610637600160a060020a03600435166024356115ed565b604080519485526020850193909352838301919091526060830152519081900360800190f35b34801561066957600080fd5b506102cf600435602435611855565b34801561068457600080fd5b50604080516020601f6064356004818101359283018490048402850184019095528184526101e094600160a060020a0381358116956024803590921695604435953695608494019181908401838280828437509497506119bd9650505050505050565b3480156106f357600080fd5b506102426004356119e5565b34801561070b57600080fd5b50610339600435602435604435611a9a565b34801561072957600080fd5b50610219600160a060020a0360043581169060243516611d70565b34801561075057600080fd5b506101e0600160a060020a0360043516611d9e565b600c5460009081908190819074010000000000000000000000000000000000000000900460ff161561079657600080fd5b61079f86610fd4565b15156107fa5760408051600080516020613408833981519152815260206004820152601760248201527f43616c656e64617220646f6573206e6f74206578697374000000000000000000604482015290519081900360640190fd5b600e54604080517fc4534aa0000000000000000000000000000000000000000000000000000000008152600481018890529051600160a060020a039092169550859163c4534aa0916024808201926020929091908290030181600087803b15801561086457600080fd5b505af1158015610878573d6000803e3d6000fd5b505050506040513d602081101561088e57600080fd5b5051604080517f24c310ea000000000000000000000000000000000000000000000000000000008152600481018890529051919450600160a060020a038616916324c310ea916024808201926020929091908290030181600087803b1580156108f657600080fd5b505af115801561090a573d6000803e3d6000fd5b505050506040513d602081101561092057600080fd5b505191508582146109805760408051600080516020613408833981519152815260206004820152601660248201527f43616c656e64617220696420697320696e76616c696400000000000000000000604482015290519081900360640190fd5b604080517f98590ef9000000000000000000000000000000000000000000000000000000008152336004820152602481018790529051600160a060020a038616916398590ef991604480830192600092919082900301818387803b1580156109e757600080fd5b505af11580156109fb573d6000803e3d6000fd5b5050506000878152600d602052604090209150610a209050818463ffffffff611dbe16565b5050505050505050565b7bffffffffffffffffffffffffffffffffffffffffffffffffffffffff191660009081526020819052604090205460ff1690565b60058054604080516020601f6002600019610100600188161502019095169490940493840181900481028201810190925282815260609390929091830182828015610aea5780601f10610abf57610100808354040283529160200191610aea565b820191906000526020600020905b815481529060010190602001808311610acd57829003601f168201915b505050505090505b90565b600090815260026020526040902054600160a060020a031690565b6000610b1b82611047565b9050600160a060020a038381169082161415610b3657600080fd5b33600160a060020a0382161480610b525750610b528133611d70565b1515610b5d57600080fd5b600082815260026020526040808220805473ffffffffffffffffffffffffffffffffffffffff1916600160a060020a0387811691821790925591518593918516917f8c5be1e5ebec7d5bd14f71427d1e84f3dd0314c0f7b2291e5b200ac8c7c3b92591a4505050565b600c5474010000000000000000000000000000000000000000900460ff1615610bee57600080fd5b610bff33610bfa610c01565b61213c565b565b60095490565b6000828152600d6020526040812081908190819081908190610c2f908863ffffffff61218b16565b975095509150811515610c915760408051600080516020613408833981519152815260206004820152601e60248201527f5265736572766174696f6e20696e646578206f7574206f6620626f756e640000604482015290519081900360640190fd5b50600e54604080517fa19da961000000000000000000000000000000000000000000000000000000008152600481018890529051600160a060020a0390921691829163a19da9619160248083019260209291908290030181600087803b158015610cfa57600080fd5b505af1158015610d0e573d6000803e3d6000fd5b505050506040513d6020811015610d2457600080fd5b5051604080517f6352211e000000000000000000000000000000000000000000000000000000008152600481018990529051919550600160a060020a03831691636352211e916024808201926020929091908290030181600087803b158015610d8c57600080fd5b505af1158015610da0573d6000803e3d6000fd5b505050506040513d6020811015610db657600080fd5b50519598949750929550505050565b7f01ffc9a70000000000000000000000000000000000000000000000000000000081565b610df33382612229565b1515610dfe57600080fd5b600160a060020a0383161515610e1357600080fd5b600160a060020a0382161515610e2857600080fd5b610e328382612288565b610e3c83826122f9565b610e468282612400565b8082600160a060020a031684600160a060020a03167fddf252ad1be2c89b69c2b068fc378daa952ba7f163c4a11628f55a4df523b3ef60405160405180910390a4505050565b600d602052600090815260409020600181015460029091015482565b6000610eb383611071565b8210610ebe57600080fd5b600160a060020a0383166000908152600760205260409020805483908110610ee257fe5b9060005260206000200154905092915050565b600c54600160a060020a03163314610f0c57600080fd5b600c5474010000000000000000000000000000000000000000900460ff161515610f3557600080fd5b600c805474ff0000000000000000000000000000000000000000191690556040517f7805862f689e2f13df9f062ff482ad3ad112aca9e0847911ed832e158c525b3390600090a1565b610f9a83838360206040519081016040528060008152506119bd565b505050565b600c5474010000000000000000000000000000000000000000900460ff1615610fc757600080fd5b610fd13382612449565b50565b600090815260016020526040902054600160a060020a0316151590565b6000610ffb610c01565b821061100657600080fd5b600980548390811061101457fe5b90600052602060002001549050919050565b600c5474010000000000000000000000000000000000000000900460ff1681565b600081815260016020526040812054600160a060020a031680151561106b57600080fd5b92915050565b6000600160a060020a038216151561108857600080fd5b50600160a060020a031660009081526003602052604090205490565b600c54600160a060020a031633146110bb57600080fd5b600c54604051600160a060020a03909116907ff8df31144d9c2f0f6b59d69b8b98abd5459d07f2742c4df920b25aae33c6482090600090a2600c805473ffffffffffffffffffffffffffffffffffffffff19169055565b600c54600160a060020a0316331461112957600080fd5b600c5474010000000000000000000000000000000000000000900460ff161561115157600080fd5b600c805474ff00000000000000000000000000000000000000001916740100000000000000000000000000000000000000001790556040517f6985a02210a168e66602d3235cb6db0e70f92b3ba4d376a33c0f3d9434bff62590600090a1565b600c54600160a060020a031681565b6000818152600d6020526040812061106b90612543565b60068054604080516020601f6002600019610100600188161502019095169490940493840181900481028201810190925282815260609390929091830182828015610aea5780601f10610abf57610100808354040283529160200191610aea565b6000838152600d60205260408120819081908190819061125e908863ffffffff61255e16565b919550909350915083801561127257508186115b156112805760009450611358565b6000888152600d6020526040902061129e908863ffffffff6125f216565b919550909350915083156113535750600e54604080517fa19da961000000000000000000000000000000000000000000000000000000008152600481018590529051600160a060020a03909216918891839163a19da961916024808201926020929091908290030181600087803b15801561131857600080fd5b505af115801561132c573d6000803e3d6000fd5b505050506040513d602081101561134257600080fd5b505111156113535760009450611358565b600194505b505050509392505050565b600c546000908190819074010000000000000000000000000000000000000000900460ff161561139257600080fd5b61139b86610fd4565b15156113f65760408051600080516020613408833981519152815260206004820152601760248201527f43616c656e64617220646f6573206e6f74206578697374000000000000000000604482015290519081900360640190fd5b611401868686611238565b15156114825760408051600080516020613408833981519152815260206004820152602c60248201527f546f6b656e20697320756e617661696c61626c6520647572696e67207468697360448201527f2074696d6520706572696f640000000000000000000000000000000000000000606482015290519081900360840190fd5b600e54604080517f2a92b01f0000000000000000000000000000000000000000000000000000000081523360048201526024810189905260448101889052606481018790529051600160a060020a0390921693508391632a92b01f916084808201926020929091908290030181600087803b15801561150057600080fd5b505af1158015611514573d6000803e3d6000fd5b505050506040513d602081101561152a57600080fd5b50516000878152600d6020526040902090915061154e90868363ffffffff61265d16565b50909695505050505050565b600160a060020a03821633141561157057600080fd5b336000818152600460209081526040808320600160a060020a03871680855290835292819020805460ff1916861515908117909155815190815290519293927f17307eab39ab6107e8899845ad3d59bd9653f200f220920489ca2b5937696c31929181900390910190a35050565b600e54600160a060020a031681565b600e54604080517f2f745c59000000000000000000000000000000000000000000000000000000008152600160a060020a03858116600483015260248201859052915160009384938493849391909216918291632f745c599160448082019260209290919082900301818887803b15801561166757600080fd5b505af115801561167b573d6000803e3d6000fd5b505050506040513d602081101561169157600080fd5b5051604080517fc4534aa0000000000000000000000000000000000000000000000000000000008152600481018390529051919650600160a060020a0383169163c4534aa0916024808201926020929091908290030181600087803b1580156116f957600080fd5b505af115801561170d573d6000803e3d6000fd5b505050506040513d602081101561172357600080fd5b5051604080517fa19da961000000000000000000000000000000000000000000000000000000008152600481018890529051919550600160a060020a0383169163a19da961916024808201926020929091908290030181600087803b15801561178b57600080fd5b505af115801561179f573d6000803e3d6000fd5b505050506040513d60208110156117b557600080fd5b5051604080517f24c310ea000000000000000000000000000000000000000000000000000000008152600481018890529051919450600160a060020a038316916324c310ea916024808201926020929091908290030181600087803b15801561181d57600080fd5b505af1158015611831573d6000803e3d6000fd5b505050506040513d602081101561184757600080fd5b505194979396509194505050565b6000828152600d6020526040812081808080611877858863ffffffff6125f216565b9195509350915083156119b25750600e54604080517fa19da961000000000000000000000000000000000000000000000000000000008152600481018490529051600160a060020a03909216918891839163a19da961916024808201926020929091908290030181600087803b1580156118f057600080fd5b505af1158015611904573d6000803e3d6000fd5b505050506040513d602081101561191a57600080fd5b5051106119b25780600160a060020a0316636352211e836040518263ffffffff167c010000000000000000000000000000000000000000000000000000000002815260040180828152602001915050602060405180830381600087803b15801561198357600080fd5b505af1158015611997573d6000803e3d6000fd5b505050506040513d60208110156119ad57600080fd5b505195505b505050505092915050565b6119c8848484610de9565b6119d484848484612695565b15156119df57600080fd5b50505050565b60606119f082610fd4565b15156119fb57600080fd5b6000828152600b602090815260409182902080548351601f600260001961010060018616150201909316929092049182018490048402810184019094528084529091830182828015611a8e5780601f10611a6357610100808354040283529160200191611a8e565b820191906000526020600020905b815481529060010190602001808311611a7157829003601f168201915b50505050509050919050565b600080600080600080600080600c60149054906101000a900460ff16151515611ac257600080fd5b611acb8b610fd4565b1515611b265760408051600080516020613408833981519152815260206004820152601760248201527f43616c656e64617220646f6573206e6f74206578697374000000000000000000604482015290519081900360640190fd5b5060008a8152600d60205260408120600e54909750600160a060020a0316955060019450899350611b5d878563ffffffff61255e16565b919650945091505b8415611d625785600160a060020a031663a19da961836040518263ffffffff167c010000000000000000000000000000000000000000000000000000000002815260040180828152602001915050602060405180830381600087803b158015611bcd57600080fd5b505af1158015611be1573d6000803e3d6000fd5b505050506040513d6020811015611bf757600080fd5b50519250888311801590611ca9575033600160a060020a031686600160a060020a0316636352211e846040518263ffffffff167c010000000000000000000000000000000000000000000000000000000002815260040180828152602001915050602060405180830381600087803b158015611c7257600080fd5b505af1158015611c86573d6000803e3d6000fd5b505050506040513d6020811015611c9c57600080fd5b5051600160a060020a0316145b15611d4657604080517f98590ef9000000000000000000000000000000000000000000000000000000008152336004820152602481018490529051600160a060020a038816916398590ef991604480830192600092919082900301818387803b158015611d1557600080fd5b505af1158015611d29573d6000803e3d6000fd5b50505050611d408488611dbe90919063ffffffff16565b50506001015b611d56878563ffffffff61281716565b91965094509150611b65565b9a9950505050505050505050565b600160a060020a03918216600090815260046020908152604080832093909416825291909152205460ff1690565b600c54600160a060020a03163314611db557600080fd5b610fd181612870565b6000806000806000806000806000806000808d60020154600014151561212b57600099508d600001600080815260200190815260200160002098508d6002015489600201600160ff16600281101515611e1357fe5b015560009750889650869550859450600193508392505b886002018460ff16600281101515611e3e57fe5b01541561203d578997508896955060028088019060ff8616908110611e5f57fe5b015499508d60000160008b815260200190815260200160002098508392508c896000015410611e8f576000611e92565b60015b89549094508d1415611ea2578894505b611eab896128ee565b158015611ec05750611ebe8e8a8661290a565b155b1561203857611ed38e8a8660010361290a565b15611f3057611ee48e8a8c8761291f565b876002018460ff16600281101515611ef857fe5b015560028088019060ff8516908110611f0d57fe5b015497508d60000160008981526020019081526020016000209650839250612038565b8d60006002808a019060ff600188900316908110611f4a57fe5b01548152602001908152602001600020915060008260040154111561203857611f758e83600061290a565b158015611f8b5750611f898e83600161290a565b155b15611fbb576005808801805460ff199081166001179091558a820180548216905590830180549091169055612038565b60028601548814611fcd576001611fd0565b60005b9050611fdd8e838561290a565b1561200957611fee8e888a86612a04565b866002018260ff1660028110151561200257fe5b015561202c565b6120158e888a8661291f565b866002018260ff1660028110151561202957fe5b01555b6120388e8a8884612a7c565b611e2a565b6000856004015411156120d85760019b5084600101549a506120638e8a60000154612ae6565b885485556001808a0154818701556002808b019186900360ff1690811061208657fe5b0154876002018460ff1660028110151561209c57fe5b015560008a815260208f90526040812081815560018101829055906120c46002830182613339565b5060006004820155600501805460ff191690555b600080805260208f905260409020600201600101548e6002018190555060008e6000016000808152602001908152602001600020600201600160ff1660028110151561212057fe5b015561212b8e612bcd565b505050505050505050509250929050565b6121468282612bf1565b600980546000838152600a60205260408120829055600182018355919091527f6e1540171b6c0c960b71a7020d9f60077f6af931a8bbf590da0223dacf75c7af015550565b60028201546000908152602083905260408120819081908490826121af8883612c4c565b90505b828260040154111561221f5782816004015414156121e15760018260000154836001015495509550955061221f565b80600401548310156121f55780915061220e565b6121ff8883612c61565b91508060040154600101830392505b6122188883612c4c565b90506121b2565b5050509250925092565b60008061223583611047565b905080600160a060020a031684600160a060020a03161480612270575083600160a060020a031661226584610af5565b600160a060020a0316145b8061228057506122808185611d70565b949350505050565b81600160a060020a031661229b82611047565b600160a060020a0316146122ae57600080fd5b600081815260026020526040902054600160a060020a0316156122f5576000818152600260205260409020805473ffffffffffffffffffffffffffffffffffffffff191690555b5050565b60008060006123088585612c6f565b600084815260086020908152604080832054600160a060020a038916845260079092529091205490935061234390600163ffffffff612d0516565b600160a060020a03861660009081526007602052604090208054919350908390811061236b57fe5b90600052602060002001549050806007600087600160a060020a0316600160a060020a03168152602001908152602001600020848154811015156123ab57fe5b6000918252602080832090910192909255600160a060020a03871681526007909152604090208054906123e2906000198301613347565b50600093845260086020526040808520859055908452909220555050565b600061240c8383612d17565b50600160a060020a039091166000908152600760209081526040808320805460018101825590845282842081018590559383526008909152902055565b60008060006124588585612da7565b6000848152600b60205260409020546002600019610100600184161502019091160415612496576000848152600b602052604081206124969161336b565b6000848152600a60205260409020546009549093506124bc90600163ffffffff612d0516565b91506009828154811015156124cd57fe5b90600052602060002001549050806009848154811015156124ea57fe5b6000918252602082200191909155600980548490811061250657fe5b6000918252602090912001556009805490612525906000198301613347565b506000938452600a6020526040808520859055908452909220555050565b60028101546000908152602091909152604090206004015490565b60008080526020839052604080822060028501548352908220829182915b6000816004015411156125c957805486141561259a578091506125c9565b80548611156125b4576125ad8782612c61565b90506125c4565b8091506125c18782612c4c565b90505b61257c565b6000826004015411156125e9576001945081600001549350816001015492505b50509250925092565b60008080526020839052604080822060028501548352908220829182915b6000816004015411156125c957805486141561262e578091506125c9565b8054861015612648576126418782612c4c565b9050612658565b8091506126558782612c61565b90505b612610565b600080600061266d868686612df7565b6001810154909150841461268c57600181810180549086905590935091505b50935093915050565b6000806126aa85600160a060020a0316613067565b15156126b9576001915061280e565b6040517f150b7a020000000000000000000000000000000000000000000000000000000081523360048201818152600160a060020a03898116602485015260448401889052608060648501908152875160848601528751918a169463150b7a0294938c938b938b93909160a490910190602085019080838360005b8381101561274c578181015183820152602001612734565b50505050905090810190601f1680156127795780820380516001836020036101000a031916815260200191505b5095505050505050602060405180830381600087803b15801561279b57600080fd5b505af11580156127af573d6000803e3d6000fd5b505050506040513d60208110156127c557600080fd5b50517bffffffffffffffffffffffffffffffffffffffffffffffffffffffff1981167f150b7a020000000000000000000000000000000000000000000000000000000014925090505b50949350505050565b60008080526020839052604080822060028501548352908220829182915b6000816004015411156125c9578054861061285b576128548782612c61565b905061286b565b8091506128688782612c4c565b90505b612835565b600160a060020a038116151561288557600080fd5b600c54604051600160a060020a038084169216907f8be0079c531659141344cd1fd0a4f28419497f9722a3daafe3b4186f6b6457e090600090a3600c805473ffffffffffffffffffffffffffffffffffffffff1916600160a060020a0392909216919091179055565b600080826004015411801561106b5750506005015460ff161590565b600061228061291a85858561306f565b6128ee565b600080846002018360010360ff1660028110151561293957fe5b01546000818152602088905260409020909250905060028082019060ff851690811061296157fe5b0154856002018460010360ff1660028110151561297a57fe5b01558360028083019060ff861690811061299057fe5b01556005808601805460ff1990811690915590820180549091166001179055600082116129bc57600080fd5b60048086015490820155600084116129d357600080fd5b6129dd8686612c61565b600401546129eb8787612c4c565b6004015401600101856004018190555050949350505050565b60006001829003612a508680846002808a019060ff8716908110612a2457fe5b01548152602001908152602001600020876002018460ff16600281101515612a4857fe5b01548461291f565b856002018260ff16600281101515612a6457fe5b0155612a728686868661291f565b9695505050505050565b60058301805460ff191690556000612a9585848461306f565b60058101805460ff1916905590506001612aaf8683612c4c565b600501805460ff19169115159190911790556001612acd8683612c61565b600501805460ff19169115159190911790555050505050565b600080805260208390526040808220600301548083529120811580612b0d57506004810154155b15612b8d5760408051600080516020613408833981519152815260206004820152602f60248201527f64656372656d656e742073686f756c64206e6f742062652063616c6c6564206f60448201527f6e20616e20656d70747920747265650000000000000000000000000000000000606482015290519081900360840190fd5b805483146119df576004810180546000190190558054831115612bbb57612bb48482612c61565b9050612bc8565b612bc58482612c4c565b90505b612b8d565b6002810154600090815260209190915260409020600501805460ff19166001179055565b600160a060020a0382161515612c0657600080fd5b612c108282612400565b6040518190600160a060020a038416906000907fddf252ad1be2c89b69c2b068fc378daa952ba7f163c4a11628f55a4df523b3ef908290a45050565b6000612c5a8383600061306f565b9392505050565b6000612c5a8383600161306f565b81600160a060020a0316612c8282611047565b600160a060020a031614612c9557600080fd5b600160a060020a038216600090815260036020526040902054612cbf90600163ffffffff612d0516565b600160a060020a03909216600090815260036020908152604080832094909455918152600190915220805473ffffffffffffffffffffffffffffffffffffffff19169055565b600082821115612d1157fe5b50900390565b600081815260016020526040902054600160a060020a031615612d3957600080fd5b6000818152600160208181526040808420805473ffffffffffffffffffffffffffffffffffffffff1916600160a060020a0388169081179091558452600390915290912054612d879161309f565b600160a060020a0390921660009081526003602052604090209190915550565b612db18282612288565b612dbb82826122f9565b6040518190600090600160a060020a038516907fddf252ad1be2c89b69c2b068fc378daa952ba7f163c4a11628f55a4df523b3ef908390a45050565b60008060008060008060008060008060008a9a508d6002015460001415612e3857612e238e8e8e6130ac565b8f6002016000829e508391905055505061304d565b600099508d600001600080815260200190815260200160002098508d6002015489600201600160ff16600281101515612e6d57fe5b01819055508d6002015497508d600001600089815260200190815260200160002096506000955088945088935060009250600091505b60048701541515612ee357612eb98e8e8e6130ac565b9098509650876002808b019060ff8616908110612ed257fe5b0155612ede8e8e6131ec565b612eed565b612eed8e886132d2565b612ef6876128ee565b8015612f065750612f06896128ee565b15612f995760028401548614612f1d576001612f20565b60005b9050886002018260ff16600281101515612f3657fe5b0154881415612f6e57612f4e8e86888560010361291f565b846002018260ff16600281101515612f6257fe5b01559293508392612f99565b612f7d8e868885600103612a04565b846002018260ff16600281101515612f9157fe5b015592975087925b86548d1415612faa57869a50613002565b86548392508d11612fbc576000612fbf565b60015b979996988a988a98975090959450925060028088019060ff8516908110612fe257fe5b015497508d60000160008981526020019081526020016000209650612ea3565b600080805260208f905260409020600201600101548e6002018190555060008e6000016000808152602001908152602001600020600201600160ff1660028110151561304a57fe5b01555b6130568e612bcd565b505050505050505050509392505050565b6000903b1190565b6000838160028086019060ff861690811061308657fe5b0154815260200190815260200160002090509392505050565b8181018281101561106b57fe5b600080846001015460001914156131385760408051600080516020613408833981519152815260206004820152602960248201527f75696e74206f766572666c6f773a20756e61626c6520696e73657274206d6f7260448201527f6520656e74726965730000000000000000000000000000000000000000000000606482015290519081900360840190fd5b600180860180548201908190556040805160a08101825287815260208082018881528351808501855260008082528184018190528486019182526060850188905260808501819052868152928c90529390912082518155905194810194909455905191945091906131af90600280840191906133af565b50606082015160048201556080909101516005909101805460ff191691151591909117905550600081815260209490945260409093209293915050565b60008080526020839052604080822060030154808352912081158061321357506004810154155b156132935760408051600080516020613408833981519152815260206004820152602f60248201527f696e6372656d656e742073686f756c64206e6f742062652063616c6c6564206f60448201527f6e20616e20656d70747920747265650000000000000000000000000000000000606482015290519081900360840190fd5b805483146119df57600481018054600101905580548311156132c0576132b98482612c61565b90506132cd565b6132ca8482612c4c565b90505b613293565b6000806132df8484612c4c565b91506132eb8484612c61565b90506132f6826128ee565b80156133065750613306816128ee565b156119df576005928301805460ff1990811690915591830180548316600190811790915592018054909116909117905550565b506000815560010160009055565b815481835581811115610f9a57600083815260209020610f9a9181019083016133ed565b50805460018160011615610100020316600290046000825580601f106133915750610fd1565b601f016020900490600052602060002090810190610fd191906133ed565b82600281019282156133dd579160200282015b828111156133dd5782518255916020019190600101906133c2565b506133e99291506133ed565b5090565b610af291905b808211156133e957600081556001016133f3560008c379a000000000000000000000000000000000000000000000000000000000a165627a7a723058205335c48f146884193fd517a02e9b1343fa12cf605d5d65b7b2e0a275f4bf9354002960806040523480156200001157600080fd5b50604080518082018252600b81527f5265736572766174696f6e0000000000000000000000000000000000000000006020808301919091528251808401909352600383527f52455a00000000000000000000000000000000000000000000000000000000009083015290620000af7f01ffc9a700000000000000000000000000000000000000000000000000000000640100000000620001c5810204565b620000e37f80ac58cd00000000000000000000000000000000000000000000000000000000640100000000620001c5810204565b620001177f4f558e7900000000000000000000000000000000000000000000000000000000640100000000620001c5810204565b81516200012c90600590602085019062000232565b5080516200014290600690602084019062000232565b50620001777f780e9d6300000000000000000000000000000000000000000000000000000000640100000000620001c5810204565b620001ab7f5b5e139f00000000000000000000000000000000000000000000000000000000640100000000620001c5810204565b5050600c8054600160a060020a03191633179055620002d7565b7fffffffff000000000000000000000000000000000000000000000000000000008082161415620001f557600080fd5b7fffffffff00000000000000000000000000000000000000000000000000000000166000908152602081905260409020805460ff19166001179055565b828054600181600116156101000203166002900490600052602060002090601f016020900481019282601f106200027557805160ff1916838001178555620002a5565b82800160010185558215620002a5579182015b82811115620002a557825182559160200191906001019062000288565b50620002b3929150620002b7565b5090565b620002d491905b80821115620002b35760008155600101620002be565b90565b61154180620002e76000396000f3006080604052600436106101535763ffffffff7c010000000000000000000000000000000000000000000000000000000060003504166301ffc9a7811461015857806306fdde03146101a3578063081812fc1461022d578063095ea7b31461026157806318160ddd1461028757806319fa8f50146102ae57806323b872dd146102f557806324c310ea1461031f5780632a92b01f146103375780632f745c591461036157806342842e0e146103855780634f558e79146103af5780634f6ccce7146103c75780636352211e146103df57806370a08231146103f7578063715018a6146104185780638da5cb5b1461042d57806395d89b411461044257806398590ef914610457578063a19da9611461047b578063a22cb46514610493578063b88d4fde146104b9578063c4534aa014610528578063c87b56dd14610540578063e985e9c514610558578063f2fde38b1461057f575b600080fd5b34801561016457600080fd5b5061018f7bffffffffffffffffffffffffffffffffffffffffffffffffffffffff19600435166105a0565b604080519115158252519081900360200190f35b3480156101af57600080fd5b506101b86105d4565b6040805160208082528351818301528351919283929083019185019080838360005b838110156101f25781810151838201526020016101da565b50505050905090810190601f16801561021f5780820380516001836020036101000a031916815260200191505b509250505060405180910390f35b34801561023957600080fd5b5061024560043561066b565b60408051600160a060020a039092168252519081900360200190f35b34801561026d57600080fd5b50610285600160a060020a0360043516602435610686565b005b34801561029357600080fd5b5061029c61073c565b60408051918252519081900360200190f35b3480156102ba57600080fd5b506102c3610742565b604080517bffffffffffffffffffffffffffffffffffffffffffffffffffffffff199092168252519081900360200190f35b34801561030157600080fd5b50610285600160a060020a0360043581169060243516604435610766565b34801561032b57600080fd5b5061029c600435610809565b34801561034357600080fd5b5061029c600160a060020a036004351660243560443560643561081b565b34801561036d57600080fd5b5061029c600160a060020a03600435166024356108cf565b34801561039157600080fd5b50610285600160a060020a036004358116906024351660443561091c565b3480156103bb57600080fd5b5061018f60043561093d565b3480156103d357600080fd5b5061029c60043561095a565b3480156103eb57600080fd5b5061024560043561098f565b34801561040357600080fd5b5061029c600160a060020a03600435166109b9565b34801561042457600080fd5b506102856109ec565b34801561043957600080fd5b50610245610a5a565b34801561044e57600080fd5b506101b8610a69565b34801561046357600080fd5b50610285600160a060020a0360043516602435610aca565b34801561048757600080fd5b5061029c600435610b61565b34801561049f57600080fd5b50610285600160a060020a03600435166024351515610b73565b3480156104c557600080fd5b50604080516020601f60643560048181013592830184900484028501840190955281845261028594600160a060020a038135811695602480359092169560443595369560849401918190840183828082843750949750610bf79650505050505050565b34801561053457600080fd5b5061029c600435610c1f565b34801561054c57600080fd5b506101b8600435610c31565b34801561056457600080fd5b5061018f600160a060020a0360043581169060243516610ce6565b34801561058b57600080fd5b50610285600160a060020a0360043516610d14565b7bffffffffffffffffffffffffffffffffffffffffffffffffffffffff191660009081526020819052604090205460ff1690565b60058054604080516020601f60026000196101006001881615020190951694909404938401819004810282018101909252828152606093909290918301828280156106605780601f1061063557610100808354040283529160200191610660565b820191906000526020600020905b81548152906001019060200180831161064357829003601f168201915b505050505090505b90565b600090815260026020526040902054600160a060020a031690565b60006106918261098f565b9050600160a060020a0383811690821614156106ac57600080fd5b33600160a060020a03821614806106c857506106c88133610ce6565b15156106d357600080fd5b600082815260026020526040808220805473ffffffffffffffffffffffffffffffffffffffff1916600160a060020a0387811691821790925591518593918516917f8c5be1e5ebec7d5bd14f71427d1e84f3dd0314c0f7b2291e5b200ac8c7c3b92591a4505050565b60095490565b7f01ffc9a70000000000000000000000000000000000000000000000000000000081565b6107703382610d37565b151561077b57600080fd5b600160a060020a038316151561079057600080fd5b600160a060020a03821615156107a557600080fd5b6107af8382610d96565b6107b98382610e07565b6107c38282610f0e565b8082600160a060020a031684600160a060020a03167fddf252ad1be2c89b69c2b068fc378daa952ba7f163c4a11628f55a4df523b3ef60405160405180910390a4505050565b600d6020526000908152604090205481565b600c546000908190600160a060020a0316331461083757600080fd5b5060105461084c81600163ffffffff610f5716565b6010556108598682610f64565b6000818152600d60209081526040808320889055600e8252808320879055600f82529182902085905581518781529081018390528151600160a060020a038916927f0c42492e9a23edb18d7a10ab834f9871ecd80970bffc97312a8a1c05b88e807d928290030190a28091505b50949350505050565b60006108da836109b9565b82106108e557600080fd5b600160a060020a038316600090815260076020526040902080548390811061090957fe5b9060005260206000200154905092915050565b6109388383836020604051908101604052806000815250610bf7565b505050565b600090815260016020526040902054600160a060020a0316151590565b600061096461073c565b821061096f57600080fd5b600980548390811061097d57fe5b90600052602060002001549050919050565b600081815260016020526040812054600160a060020a03168015156109b357600080fd5b92915050565b6000600160a060020a03821615156109d057600080fd5b50600160a060020a031660009081526003602052604090205490565b600c54600160a060020a03163314610a0357600080fd5b600c54604051600160a060020a03909116907ff8df31144d9c2f0f6b59d69b8b98abd5459d07f2742c4df920b25aae33c6482090600090a2600c805473ffffffffffffffffffffffffffffffffffffffff19169055565b600c54600160a060020a031681565b60068054604080516020601f60026000196101006001881615020190951694909404938401819004810282018101909252828152606093909290918301828280156106605780601f1061063557610100808354040283529160200191610660565b600c54600090600160a060020a03163314610ae457600080fd5b610aee8383610fb3565b506000818152600d60209081526040808320805490849055600e8352818420849055600f83528184209390935580518381529182018490528051600160a060020a038616927f0d7bc7218b0c3ca2b1d50182f86627af6beb765bcf913b56b332c000b18294ea92908290030190a2505050565b600f6020526000908152604090205481565b600160a060020a038216331415610b8957600080fd5b336000818152600460209081526040808320600160a060020a03871680855290835292819020805460ff1916861515908117909155815190815290519293927f17307eab39ab6107e8899845ad3d59bd9653f200f220920489ca2b5937696c31929181900390910190a35050565b610c02848484610766565b610c0e848484846110ad565b1515610c1957600080fd5b50505050565b600e6020526000908152604090205481565b6060610c3c8261093d565b1515610c4757600080fd5b6000828152600b602090815260409182902080548351601f600260001961010060018616150201909316929092049182018490048402810184019094528084529091830182828015610cda5780601f10610caf57610100808354040283529160200191610cda565b820191906000526020600020905b815481529060010190602001808311610cbd57829003601f168201915b50505050509050919050565b600160a060020a03918216600090815260046020908152604080832093909416825291909152205460ff1690565b600c54600160a060020a03163314610d2b57600080fd5b610d348161122a565b50565b600080610d438361098f565b905080600160a060020a031684600160a060020a03161480610d7e575083600160a060020a0316610d738461066b565b600160a060020a0316145b80610d8e5750610d8e8185610ce6565b949350505050565b81600160a060020a0316610da98261098f565b600160a060020a031614610dbc57600080fd5b600081815260026020526040902054600160a060020a031615610e03576000818152600260205260409020805473ffffffffffffffffffffffffffffffffffffffff191690555b5050565b6000806000610e1685856112a8565b600084815260086020908152604080832054600160a060020a0389168452600790925290912054909350610e5190600163ffffffff61133e16565b600160a060020a038616600090815260076020526040902080549193509083908110610e7957fe5b90600052602060002001549050806007600087600160a060020a0316600160a060020a0316815260200190815260200160002084815481101515610eb957fe5b6000918252602080832090910192909255600160a060020a0387168152600790915260409020805490610ef0906000198301611493565b50600093845260086020526040808520859055908452909220555050565b6000610f1a8383611350565b50600160a060020a039091166000908152600760209081526040808320805460018101825590845282842081018590559383526008909152902055565b818101828110156109b357fe5b610f6e82826113e0565b600980546000838152600a60205260408120829055600182018355919091527f6e1540171b6c0c960b71a7020d9f60077f6af931a8bbf590da0223dacf75c7af015550565b6000806000610fc2858561143b565b6000848152600b60205260409020546002600019610100600184161502019091160415611000576000848152600b60205260408120611000916114b7565b6000848152600a602052604090205460095490935061102690600163ffffffff61133e16565b915060098281548110151561103757fe5b906000526020600020015490508060098481548110151561105457fe5b6000918252602082200191909155600980548490811061107057fe5b600091825260209091200155600980549061108f906000198301611493565b506000938452600a6020526040808520859055908452909220555050565b6000806110c285600160a060020a031661148b565b15156110d157600191506108c6565b6040517f150b7a020000000000000000000000000000000000000000000000000000000081523360048201818152600160a060020a03898116602485015260448401889052608060648501908152875160848601528751918a169463150b7a0294938c938b938b93909160a490910190602085019080838360005b8381101561116457818101518382015260200161114c565b50505050905090810190601f1680156111915780820380516001836020036101000a031916815260200191505b5095505050505050602060405180830381600087803b1580156111b357600080fd5b505af11580156111c7573d6000803e3d6000fd5b505050506040513d60208110156111dd57600080fd5b50517bffffffffffffffffffffffffffffffffffffffffffffffffffffffff19167f150b7a0200000000000000000000000000000000000000000000000000000000149695505050505050565b600160a060020a038116151561123f57600080fd5b600c54604051600160a060020a038084169216907f8be0079c531659141344cd1fd0a4f28419497f9722a3daafe3b4186f6b6457e090600090a3600c805473ffffffffffffffffffffffffffffffffffffffff1916600160a060020a0392909216919091179055565b81600160a060020a03166112bb8261098f565b600160a060020a0316146112ce57600080fd5b600160a060020a0382166000908152600360205260409020546112f890600163ffffffff61133e16565b600160a060020a03909216600090815260036020908152604080832094909455918152600190915220805473ffffffffffffffffffffffffffffffffffffffff19169055565b60008282111561134a57fe5b50900390565b600081815260016020526040902054600160a060020a03161561137257600080fd5b6000818152600160208181526040808420805473ffffffffffffffffffffffffffffffffffffffff1916600160a060020a03881690811790915584526003909152909120546113c091610f57565b600160a060020a0390921660009081526003602052604090209190915550565b600160a060020a03821615156113f557600080fd5b6113ff8282610f0e565b6040518190600160a060020a038416906000907fddf252ad1be2c89b69c2b068fc378daa952ba7f163c4a11628f55a4df523b3ef908290a45050565b6114458282610d96565b61144f8282610e07565b6040518190600090600160a060020a038516907fddf252ad1be2c89b69c2b068fc378daa952ba7f163c4a11628f55a4df523b3ef908390a45050565b6000903b1190565b815481835581811115610938576000838152602090206109389181019083016114f7565b50805460018160011615610100020316600290046000825580601f106114dd5750610d34565b601f016020900490600052602060002090810190610d3491905b61066891905b8082111561151157600081556001016114fd565b50905600a165627a7a72305820746b9f8edb1733c4e006e29b9858f4304c4ff9cc21b4531152fcad50bd3dac0a0029",
  "source": "pragma solidity ^0.4.24;\n\nimport \"openzeppelin-solidity/contracts/token/ERC721/ERC721Token.sol\";\nimport \"openzeppelin-solidity/contracts/lifecycle/Pausable.sol\";\nimport \"solidity-treemap/contracts/TreeMap.sol\";\nimport \"./Reservation.sol\";\nimport \"./ERC809.sol\";\n\n\ncontract Calendar is ERC721Token, ERC809, Pausable {\n  using TreeMap for TreeMap.Map;\n\n  // mapping of token(calendar) id to mapping from start/end timestamp of a reservation to its id\n  mapping(uint256 => TreeMap.Map) public startTimestampsMap;\n\n  // address of the ERC721 contract tokenizing reseravation/access of this contract's token\n  address public reservationContract;\n\n  constructor() public ERC721Token(\"Calendar\", \"CAL\") {\n    reservationContract = new Reservation();\n  }\n\n  /// @notice Create a new calendar token\n  function mint()\n  public\n  whenNotPaused()\n  {\n    super._mint(msg.sender, totalSupply());\n  }\n\n  /// @notice Destroy a calendar token\n  /// TODO: figure out what to do when there are expired and/or outstanding reservations\n  function burn(uint256 _tokenId)\n  public\n  whenNotPaused()\n  {\n    super._burn(msg.sender, _tokenId);\n  }\n\n  /// @notice Query if token `_tokenId` if available to reserve between `_start` and `_stop` time\n  /// @dev For the requested token, we examine its current resertions, check\n  ///   1. whether the last reservation that has `startTime` before `_start` already ended before `_start`\n  ///                Okay                            Bad\n  ///           *startTime*   stopTime        *startTime*   stopTime\n  ///             |---------|                  |---------|\n  ///                          |-------               |-------\n  ///                          _start                 _start\n  ///   2. whether the soonest reservation that has `endTime` after `_end` will start after `_end`.\n  ///                Okay                            Bad\n  ///          startTime   *stopTime*         startTime   *stopTime*\n  ///             |---------|                  |---------|\n  ///    -------|                           -------|\n  ///           _stop                              _stop\n  ///\n  //   NB: reservation interval are [start time, stop time] i.e. closed on both ends.\n  function isAvailable(uint256 _tokenId, uint256 _start, uint256 _stop)\n  public\n  view\n  returns(bool)\n  {\n\n    bool found;\n    uint256 reservationId;\n    uint256 startTime;\n\n    // find closest event that started after _start\n    (found, startTime, reservationId) = startTimestampsMap[_tokenId].ceilingEntry(_start);\n    if (found && _stop > startTime) {\n      return false;\n    }\n\n    // find closest event that started before _start\n    (found, startTime, reservationId) = startTimestampsMap[_tokenId].floorEntry(_start);\n    if (found) {\n      Reservation reservation = Reservation(reservationContract);\n      if (reservation.stopTimestamps(reservationId) > _start) {\n        return false;\n      }\n    }\n\n    return true;\n  }\n\n  /// @notice Reserve access to token `_tokenId` from time `_start` to time `_stop`\n  /// @dev A successful reservation must ensure each time slot in the range _start to _stop\n  ///  is not previously reserved.\n  function reserve(uint256 _tokenId, uint256 _start, uint256 _stop)\n  public\n  whenNotPaused()\n  returns(uint256)\n  {\n    require(exists(_tokenId), \"Calendar does not exist\");\n\n    if (!isAvailable(_tokenId, _start, _stop)) {\n      revert(\"Token is unavailable during this time period\");\n    }\n\n    Reservation reservation = Reservation(reservationContract);\n    uint256 reservationId = reservation.reserve(msg.sender, _tokenId, _start, _stop);\n    startTimestampsMap[_tokenId].put(_start, reservationId);\n\n    return reservationId;\n  }\n\n  /// @notice Cancel all reservations for `_tokenId` between `_start` and `_stop`\n  /// @return number of reservation that has been cancelled\n  function cancelAll(uint256 _tokenId, uint256 _start, uint256 _stop)\n  public\n  whenNotPaused()\n  returns (uint256)\n  {\n    require(exists(_tokenId), \"Calendar does not exist\");\n\n    // TODO: implement iterator in TreeMap for more efficient batch removal\n    TreeMap.Map storage startTimestamps = startTimestampsMap[_tokenId];\n    Reservation reservation = Reservation(reservationContract);\n\n    bool found = true;\n    uint256 startTime = _start;\n    uint256 stopTime;\n    uint256 reservationId;\n    uint256 cancelled = 0;\n    // FIXME: a token could also have a `renter => startTimestamps` mapping to skip\n    //   reservations that don't belong to a renter more efficiently\n    (found, startTime, reservationId) = startTimestamps.ceilingEntry(startTime);\n    while (found) {\n      stopTime = reservation.stopTimestamps(reservationId);\n      if (stopTime <= _stop && reservation.ownerOf(reservationId) == msg.sender) {\n        reservation.cancel(msg.sender, reservationId);\n        startTimestamps.remove(startTime);\n\n        cancelled++;\n      }\n\n      (found, startTime, reservationId) = startTimestamps.higherEntry(startTime);\n    }\n\n    return cancelled;\n  }\n\n  /// @notice Cancel reservation `_reservationId` for calendar `_tokenId`\n  function cancel(uint256 _tokenId, uint256 _reservationId)\n  public\n  whenNotPaused()\n  {\n    require(exists(_tokenId), \"Calendar does not exist\");\n\n    Reservation reservation = Reservation(reservationContract);\n\n    uint256 startTime = reservation.startTimestamps(_reservationId);\n    uint256 calendarId = reservation.calendarIds(_reservationId);\n    if (calendarId != _tokenId) {\n      revert(\"Calendar id is invalid\");\n    }\n\n    reservation.cancel(msg.sender, _reservationId);\n\n    TreeMap.Map storage startTimestamps = startTimestampsMap[_tokenId];\n    startTimestamps.remove(startTime);\n  }\n\n  /// @notice Find the owner of the reservation that overlaps `_timestamp` for the calendar `_tokenId`\n  function renterOf(uint256 _tokenId, uint256 _timestamp)\n  public\n  view\n  returns (address)\n  {\n    TreeMap.Map storage startTimestamps = startTimestampsMap[_tokenId];\n\n    // find the last reservation that started before _timestamp\n    bool found;\n    uint256 startTime;\n    uint256 reservationId;\n    (found, startTime, reservationId) = startTimestamps.floorEntry(_timestamp);\n\n    if (found) {\n      Reservation reservation = Reservation(reservationContract);\n      // verify the reservation ends after _timestamp\n      if (reservation.stopTimestamps(reservationId) >= _timestamp) {\n        return reservation.ownerOf(reservationId);\n      }\n    }\n  }\n\n  /// @notice Count all reservations for an calendar\n  function reservationBalanceOf(uint256 _tokenId)\n  public\n  view\n  returns (uint256)\n  {\n    return startTimestampsMap[_tokenId].size();\n  }\n\n  /// @notice Get reservation details for a calendar by index\n  function reservationOfCalendarByIndex(uint256 _tokenId, uint256 _index)\n  public\n  view\n  returns (uint256 reservationId, uint256 startTime, uint256 stopTime, address owner)\n  {\n    bool found;\n    (found, startTime, reservationId) = startTimestampsMap[_tokenId].select(_index);\n    require(found, \"Reservation index out of bound\");\n\n    Reservation reservation = Reservation(reservationContract);\n    stopTime = reservation.stopTimestamps(reservationId);\n    owner = reservation.ownerOf(reservationId);\n  }\n\n  /// @notice Get reservation details for an account by index\n  function reservationOfOwnerByIndex(address _owner, uint256 _index)\n  public\n  view\n  returns (uint256 reservationId, uint256 startTime, uint256 stopTime, uint256 calendarId)\n  {\n    Reservation reservation = Reservation(reservationContract);\n\n    reservationId = reservation.tokenOfOwnerByIndex(_owner, _index);\n    startTime = reservation.startTimestamps(reservationId);\n    stopTime = reservation.stopTimestamps(reservationId);\n    calendarId = reservation.calendarIds(reservationId);\n  }\n}\n",
  "sourcePath": "/Users/saurfang/workspace/meeth/contracts/Calendar.sol",
  "compiler": {
    "name": "solc",
    "version": "0.4.24+commit.e67f0147.Emscripten.clang"
  },
  "schemaVersion": "2.0.1",
  "updatedAt": "2018-08-27T04:43:02.537Z"
}