{
  "contractName": "Reservation",
  "abi": [
    {
      "constant": true,
      "inputs": [],
      "name": "name",
      "outputs": [
        {
          "name": "",
          "type": "string"
        }
      ],
      "payable": false,
      "stateMutability": "view",
      "type": "function"
    },
    {
      "constant": true,
      "inputs": [
        {
          "name": "_tokenId",
          "type": "uint256"
        }
      ],
      "name": "getApproved",
      "outputs": [
        {
          "name": "",
          "type": "address"
        }
      ],
      "payable": false,
      "stateMutability": "view",
      "type": "function"
    },
    {
      "constant": false,
      "inputs": [
        {
          "name": "_to",
          "type": "address"
        },
        {
          "name": "_tokenId",
          "type": "uint256"
        }
      ],
      "name": "approve",
      "outputs": [],
      "payable": false,
      "stateMutability": "nonpayable",
      "type": "function"
    },
    {
      "constant": true,
      "inputs": [],
      "name": "totalSupply",
      "outputs": [
        {
          "name": "",
          "type": "uint256"
        }
      ],
      "payable": false,
      "stateMutability": "view",
      "type": "function"
    },
    {
      "constant": false,
      "inputs": [
        {
          "name": "_from",
          "type": "address"
        },
        {
          "name": "_to",
          "type": "address"
        },
        {
          "name": "_tokenId",
          "type": "uint256"
        }
      ],
      "name": "transferFrom",
      "outputs": [],
      "payable": false,
      "stateMutability": "nonpayable",
      "type": "function"
    },
    {
      "constant": true,
      "inputs": [
        {
          "name": "",
          "type": "uint256"
        }
      ],
      "name": "calendarIds",
      "outputs": [
        {
          "name": "",
          "type": "uint256"
        }
      ],
      "payable": false,
      "stateMutability": "view",
      "type": "function"
    },
    {
      "constant": true,
      "inputs": [
        {
          "name": "_owner",
          "type": "address"
        },
        {
          "name": "_index",
          "type": "uint256"
        }
      ],
      "name": "tokenOfOwnerByIndex",
      "outputs": [
        {
          "name": "",
          "type": "uint256"
        }
      ],
      "payable": false,
      "stateMutability": "view",
      "type": "function"
    },
    {
      "constant": false,
      "inputs": [
        {
          "name": "_from",
          "type": "address"
        },
        {
          "name": "_to",
          "type": "address"
        },
        {
          "name": "_tokenId",
          "type": "uint256"
        }
      ],
      "name": "safeTransferFrom",
      "outputs": [],
      "payable": false,
      "stateMutability": "nonpayable",
      "type": "function"
    },
    {
      "constant": true,
      "inputs": [
        {
          "name": "_tokenId",
          "type": "uint256"
        }
      ],
      "name": "exists",
      "outputs": [
        {
          "name": "",
          "type": "bool"
        }
      ],
      "payable": false,
      "stateMutability": "view",
      "type": "function"
    },
    {
      "constant": true,
      "inputs": [
        {
          "name": "_index",
          "type": "uint256"
        }
      ],
      "name": "tokenByIndex",
      "outputs": [
        {
          "name": "",
          "type": "uint256"
        }
      ],
      "payable": false,
      "stateMutability": "view",
      "type": "function"
    },
    {
      "constant": true,
      "inputs": [
        {
          "name": "_tokenId",
          "type": "uint256"
        }
      ],
      "name": "ownerOf",
      "outputs": [
        {
          "name": "",
          "type": "address"
        }
      ],
      "payable": false,
      "stateMutability": "view",
      "type": "function"
    },
    {
      "constant": true,
      "inputs": [
        {
          "name": "_owner",
          "type": "address"
        }
      ],
      "name": "balanceOf",
      "outputs": [
        {
          "name": "",
          "type": "uint256"
        }
      ],
      "payable": false,
      "stateMutability": "view",
      "type": "function"
    },
    {
      "constant": false,
      "inputs": [],
      "name": "renounceOwnership",
      "outputs": [],
      "payable": false,
      "stateMutability": "nonpayable",
      "type": "function"
    },
    {
      "constant": true,
      "inputs": [],
      "name": "owner",
      "outputs": [
        {
          "name": "",
          "type": "address"
        }
      ],
      "payable": false,
      "stateMutability": "view",
      "type": "function"
    },
    {
      "constant": true,
      "inputs": [],
      "name": "symbol",
      "outputs": [
        {
          "name": "",
          "type": "string"
        }
      ],
      "payable": false,
      "stateMutability": "view",
      "type": "function"
    },
    {
      "constant": true,
      "inputs": [
        {
          "name": "",
          "type": "uint256"
        }
      ],
      "name": "stopTimestamps",
      "outputs": [
        {
          "name": "",
          "type": "uint256"
        }
      ],
      "payable": false,
      "stateMutability": "view",
      "type": "function"
    },
    {
      "constant": false,
      "inputs": [
        {
          "name": "_to",
          "type": "address"
        },
        {
          "name": "_approved",
          "type": "bool"
        }
      ],
      "name": "setApprovalForAll",
      "outputs": [],
      "payable": false,
      "stateMutability": "nonpayable",
      "type": "function"
    },
    {
      "constant": false,
      "inputs": [
        {
          "name": "_from",
          "type": "address"
        },
        {
          "name": "_to",
          "type": "address"
        },
        {
          "name": "_tokenId",
          "type": "uint256"
        },
        {
          "name": "_data",
          "type": "bytes"
        }
      ],
      "name": "safeTransferFrom",
      "outputs": [],
      "payable": false,
      "stateMutability": "nonpayable",
      "type": "function"
    },
    {
      "constant": true,
      "inputs": [
        {
          "name": "",
          "type": "uint256"
        }
      ],
      "name": "startTimestamps",
      "outputs": [
        {
          "name": "",
          "type": "uint256"
        }
      ],
      "payable": false,
      "stateMutability": "view",
      "type": "function"
    },
    {
      "constant": true,
      "inputs": [
        {
          "name": "_tokenId",
          "type": "uint256"
        }
      ],
      "name": "tokenURI",
      "outputs": [
        {
          "name": "",
          "type": "string"
        }
      ],
      "payable": false,
      "stateMutability": "view",
      "type": "function"
    },
    {
      "constant": true,
      "inputs": [
        {
          "name": "_owner",
          "type": "address"
        },
        {
          "name": "_operator",
          "type": "address"
        }
      ],
      "name": "isApprovedForAll",
      "outputs": [
        {
          "name": "",
          "type": "bool"
        }
      ],
      "payable": false,
      "stateMutability": "view",
      "type": "function"
    },
    {
      "constant": false,
      "inputs": [
        {
          "name": "_newOwner",
          "type": "address"
        }
      ],
      "name": "transferOwnership",
      "outputs": [],
      "payable": false,
      "stateMutability": "nonpayable",
      "type": "function"
    },
    {
      "inputs": [],
      "payable": false,
      "stateMutability": "nonpayable",
      "type": "constructor"
    },
    {
      "anonymous": false,
      "inputs": [
        {
          "indexed": true,
          "name": "_renter",
          "type": "address"
        },
        {
          "indexed": false,
          "name": "_calendarId",
          "type": "uint256"
        },
        {
          "indexed": false,
          "name": "_tokenId",
          "type": "uint256"
        }
      ],
      "name": "Creation",
      "type": "event"
    },
    {
      "anonymous": false,
      "inputs": [
        {
          "indexed": true,
          "name": "_renter",
          "type": "address"
        },
        {
          "indexed": false,
          "name": "_calendarId",
          "type": "uint256"
        },
        {
          "indexed": false,
          "name": "_tokenId",
          "type": "uint256"
        }
      ],
      "name": "Cancellation",
      "type": "event"
    },
    {
      "anonymous": false,
      "inputs": [
        {
          "indexed": true,
          "name": "previousOwner",
          "type": "address"
        }
      ],
      "name": "OwnershipRenounced",
      "type": "event"
    },
    {
      "anonymous": false,
      "inputs": [
        {
          "indexed": true,
          "name": "previousOwner",
          "type": "address"
        },
        {
          "indexed": true,
          "name": "newOwner",
          "type": "address"
        }
      ],
      "name": "OwnershipTransferred",
      "type": "event"
    },
    {
      "anonymous": false,
      "inputs": [
        {
          "indexed": true,
          "name": "_from",
          "type": "address"
        },
        {
          "indexed": true,
          "name": "_to",
          "type": "address"
        },
        {
          "indexed": false,
          "name": "_tokenId",
          "type": "uint256"
        }
      ],
      "name": "Transfer",
      "type": "event"
    },
    {
      "anonymous": false,
      "inputs": [
        {
          "indexed": true,
          "name": "_owner",
          "type": "address"
        },
        {
          "indexed": true,
          "name": "_approved",
          "type": "address"
        },
        {
          "indexed": false,
          "name": "_tokenId",
          "type": "uint256"
        }
      ],
      "name": "Approval",
      "type": "event"
    },
    {
      "anonymous": false,
      "inputs": [
        {
          "indexed": true,
          "name": "_owner",
          "type": "address"
        },
        {
          "indexed": true,
          "name": "_operator",
          "type": "address"
        },
        {
          "indexed": false,
          "name": "_approved",
          "type": "bool"
        }
      ],
      "name": "ApprovalForAll",
      "type": "event"
    },
    {
      "constant": false,
      "inputs": [
        {
          "name": "_to",
          "type": "address"
        },
        {
          "name": "_calendarId",
          "type": "uint256"
        },
        {
          "name": "_start",
          "type": "uint256"
        },
        {
          "name": "_stop",
          "type": "uint256"
        }
      ],
      "name": "reserve",
      "outputs": [
        {
          "name": "",
          "type": "uint256"
        }
      ],
      "payable": false,
      "stateMutability": "nonpayable",
      "type": "function"
    },
    {
      "constant": false,
      "inputs": [
        {
          "name": "_owner",
          "type": "address"
        },
        {
          "name": "_tokenId",
          "type": "uint256"
        }
      ],
      "name": "cancel",
      "outputs": [],
      "payable": false,
      "stateMutability": "nonpayable",
      "type": "function"
    }
  ],
  "bytecode": "0x60806040523480156200001157600080fd5b50604080518082018252600b81527f5265736572766174696f6e00000000000000000000000000000000000000000060208083019182528351808501909452600384527f52455a00000000000000000000000000000000000000000000000000000000009084015281519192916200008c91600491620000bd565b508051620000a2906005906020840190620000bd565b5050600b8054600160a060020a031916331790555062000162565b828054600181600116156101000203166002900490600052602060002090601f016020900481019282601f106200010057805160ff191683800117855562000130565b8280016001018555821562000130579182015b828111156200013057825182559160200191906001019062000113565b506200013e92915062000142565b5090565b6200015f91905b808211156200013e576000815560010162000149565b90565b61154380620001726000396000f30060806040526004361061013d5763ffffffff7c010000000000000000000000000000000000000000000000000000000060003504166306fdde038114610142578063081812fc146101cc578063095ea7b31461020057806318160ddd1461022657806323b872dd1461024d57806324c310ea146102775780632a92b01f1461028f5780632f745c59146102b957806342842e0e146102dd5780634f558e79146103075780634f6ccce7146103335780636352211e1461034b57806370a0823114610363578063715018a6146103845780638da5cb5b1461039957806395d89b41146103ae57806398590ef9146103c3578063a19da961146103e7578063a22cb465146103ff578063b88d4fde14610425578063c4534aa014610494578063c87b56dd146104ac578063e985e9c5146104c4578063f2fde38b146104eb575b600080fd5b34801561014e57600080fd5b5061015761050c565b6040805160208082528351818301528351919283929083019185019080838360005b83811015610191578181015183820152602001610179565b50505050905090810190601f1680156101be5780820380516001836020036101000a031916815260200191505b509250505060405180910390f35b3480156101d857600080fd5b506101e46004356105a3565b60408051600160a060020a039092168252519081900360200190f35b34801561020c57600080fd5b50610224600160a060020a03600435166024356105be565b005b34801561023257600080fd5b5061023b6106b0565b60408051918252519081900360200190f35b34801561025957600080fd5b50610224600160a060020a03600435811690602435166044356106b6565b34801561028357600080fd5b5061023b600435610765565b34801561029b57600080fd5b5061023b600160a060020a0360043516602435604435606435610777565b3480156102c557600080fd5b5061023b600160a060020a036004351660243561081d565b3480156102e957600080fd5b50610224600160a060020a036004358116906024351660443561086a565b34801561031357600080fd5b5061031f6004356108a2565b604080519115158252519081900360200190f35b34801561033f57600080fd5b5061023b6004356108bf565b34801561035757600080fd5b506101e46004356108f4565b34801561036f57600080fd5b5061023b600160a060020a036004351661091e565b34801561039057600080fd5b50610224610951565b3480156103a557600080fd5b506101e46109bf565b3480156103ba57600080fd5b506101576109ce565b3480156103cf57600080fd5b50610224600160a060020a0360043516602435610a2f565b3480156103f357600080fd5b5061023b600435610ac6565b34801561040b57600080fd5b50610224600160a060020a03600435166024351515610ad8565b34801561043157600080fd5b50604080516020601f60643560048181013592830184900484028501840190955281845261022494600160a060020a038135811695602480359092169560443595369560849401918190840183828082843750949750610b5c9650505050505050565b3480156104a057600080fd5b5061023b600435610b9b565b3480156104b857600080fd5b50610157600435610bad565b3480156104d057600080fd5b5061031f600160a060020a0360043581169060243516610c62565b3480156104f757600080fd5b50610224600160a060020a0360043516610c90565b60048054604080516020601f60026000196101006001881615020190951694909404938401819004810282018101909252828152606093909290918301828280156105985780601f1061056d57610100808354040283529160200191610598565b820191906000526020600020905b81548152906001019060200180831161057b57829003601f168201915b505050505090505b90565b600090815260016020526040902054600160a060020a031690565b60006105c9826108f4565b9050600160a060020a0383811690821614156105e457600080fd5b33600160a060020a038216148061060057506106008133610c62565b151561060b57600080fd5b6000610616836105a3565b600160a060020a03161415806106345750600160a060020a03831615155b156106ab57600082815260016020908152604091829020805473ffffffffffffffffffffffffffffffffffffffff1916600160a060020a03878116918217909255835186815293519093918516927f8c5be1e5ebec7d5bd14f71427d1e84f3dd0314c0f7b2291e5b200ac8c7c3b925928290030190a35b505050565b60085490565b806106c13382610cb3565b15156106cc57600080fd5b600160a060020a03841615156106e157600080fd5b600160a060020a03831615156106f657600080fd5b6107008483610d12565b61070a8483610dc0565b6107148383610ef9565b82600160a060020a031684600160a060020a03167fddf252ad1be2c89b69c2b068fc378daa952ba7f163c4a11628f55a4df523b3ef846040518082815260200191505060405180910390a350505050565b600c6020526000908152604090205481565b600b546000908190600160a060020a0316331461079357600080fd5b61079b6106b0565b90506107a78682610f42565b6000818152600c60209081526040808320889055600d8252808320879055600e82529182902085905581518781529081018390528151600160a060020a038916927f0c42492e9a23edb18d7a10ab834f9871ecd80970bffc97312a8a1c05b88e807d928290030190a28091505b50949350505050565b60006108288361091e565b821061083357600080fd5b600160a060020a038316600090815260066020526040902080548390811061085757fe5b9060005260206000200154905092915050565b806108753382610cb3565b151561088057600080fd5b61089c8484846020604051908101604052806000815250610b5c565b50505050565b600090815260208190526040902054600160a060020a0316151590565b60006108c96106b0565b82106108d457600080fd5b60088054839081106108e257fe5b90600052602060002001549050919050565b600081815260208190526040812054600160a060020a031680151561091857600080fd5b92915050565b6000600160a060020a038216151561093557600080fd5b50600160a060020a031660009081526002602052604090205490565b600b54600160a060020a0316331461096857600080fd5b600b54604051600160a060020a03909116907ff8df31144d9c2f0f6b59d69b8b98abd5459d07f2742c4df920b25aae33c6482090600090a2600b805473ffffffffffffffffffffffffffffffffffffffff19169055565b600b54600160a060020a031681565b60058054604080516020601f60026000196101006001881615020190951694909404938401819004810282018101909252828152606093909290918301828280156105985780601f1061056d57610100808354040283529160200191610598565b600b54600090600160a060020a03163314610a4957600080fd5b610a538383610f91565b506000818152600c60209081526040808320805490849055600d8352818420849055600e83528184209390935580518381529182018490528051600160a060020a038616927f0d7bc7218b0c3ca2b1d50182f86627af6beb765bcf913b56b332c000b18294ea92908290030190a2505050565b600e6020526000908152604090205481565b600160a060020a038216331415610aee57600080fd5b336000818152600360209081526040808320600160a060020a03871680855290835292819020805460ff1916861515908117909155815190815290519293927f17307eab39ab6107e8899845ad3d59bd9653f200f220920489ca2b5937696c31929181900390910190a35050565b81610b673382610cb3565b1515610b7257600080fd5b610b7d8585856106b6565b610b898585858561108b565b1515610b9457600080fd5b5050505050565b600d6020526000908152604090205481565b6060610bb8826108a2565b1515610bc357600080fd5b6000828152600a602090815260409182902080548351601f600260001961010060018616150201909316929092049182018490048402810184019094528084529091830182828015610c565780601f10610c2b57610100808354040283529160200191610c56565b820191906000526020600020905b815481529060010190602001808311610c3957829003601f168201915b50505050509050919050565b600160a060020a03918216600090815260036020908152604080832093909416825291909152205460ff1690565b600b54600160a060020a03163314610ca757600080fd5b610cb08161120f565b50565b600080610cbf836108f4565b905080600160a060020a031684600160a060020a03161480610cfa575083600160a060020a0316610cef846105a3565b600160a060020a0316145b80610d0a5750610d0a8185610c62565b949350505050565b81600160a060020a0316610d25826108f4565b600160a060020a031614610d3857600080fd5b600081815260016020526040902054600160a060020a031615610dbc576000818152600160209081526040808320805473ffffffffffffffffffffffffffffffffffffffff1916905580518481529051600160a060020a038616927f8c5be1e5ebec7d5bd14f71427d1e84f3dd0314c0f7b2291e5b200ac8c7c3b925928290030190a35b5050565b6000806000610dcf858561128d565b600084815260076020908152604080832054600160a060020a0389168452600690925290912054909350610e0a90600163ffffffff61132216565b600160a060020a038616600090815260066020526040902080549193509083908110610e3257fe5b90600052602060002001549050806006600087600160a060020a0316600160a060020a0316815260200190815260200160002084815481101515610e7257fe5b6000918252602080832090910192909255600160a060020a0387168152600690915260408120805484908110610ea457fe5b6000918252602080832090910192909255600160a060020a0387168152600690915260409020805490610edb906000198301611495565b50600093845260076020526040808520859055908452909220555050565b6000610f058383611334565b50600160a060020a039091166000908152600660209081526040808320805460018101825590845282842081018590559383526007909152902055565b610f4c82826113c3565b600880546000838152600960205260408120829055600182018355919091527ff3f7a9fe364faab93b216da50a3214154f22a0a2b415b23a84c8169e8b636ee3015550565b6000806000610fa08585611427565b6000848152600a60205260409020546002600019610100600184161502019091160415610fde576000848152600a60205260408120610fde916114b9565b60008481526009602052604090205460085490935061100490600163ffffffff61132216565b915060088281548110151561101557fe5b906000526020600020015490508060088481548110151561103257fe5b6000918252602082200191909155600880548490811061104e57fe5b600091825260209091200155600880549061106d906000198301611495565b50600093845260096020526040808520859055908452909220555050565b6000806110a085600160a060020a0316611480565b15156110af5760019150610814565b84600160a060020a031663f0b9e5ba8786866040518463ffffffff167c01000000000000000000000000000000000000000000000000000000000281526004018084600160a060020a0316600160a060020a0316815260200183815260200180602001828103825283818151815260200191508051906020019080838360005b8381101561114757818101518382015260200161112f565b50505050905090810190601f1680156111745780820380516001836020036101000a031916815260200191505b50945050505050602060405180830381600087803b15801561119557600080fd5b505af11580156111a9573d6000803e3d6000fd5b505050506040513d60208110156111bf57600080fd5b50517fffffffff00000000000000000000000000000000000000000000000000000000167ff0b9e5ba00000000000000000000000000000000000000000000000000000000149695505050505050565b600160a060020a038116151561122457600080fd5b600b54604051600160a060020a038084169216907f8be0079c531659141344cd1fd0a4f28419497f9722a3daafe3b4186f6b6457e090600090a3600b805473ffffffffffffffffffffffffffffffffffffffff1916600160a060020a0392909216919091179055565b81600160a060020a03166112a0826108f4565b600160a060020a0316146112b357600080fd5b600160a060020a0382166000908152600260205260409020546112dd90600163ffffffff61132216565b600160a060020a039092166000908152600260209081526040808320949094559181529081905220805473ffffffffffffffffffffffffffffffffffffffff19169055565b60008282111561132e57fe5b50900390565b600081815260208190526040902054600160a060020a03161561135657600080fd5b600081815260208181526040808320805473ffffffffffffffffffffffffffffffffffffffff1916600160a060020a038716908117909155835260029091529020546113a3906001611488565b600160a060020a0390921660009081526002602052604090209190915550565b600160a060020a03821615156113d857600080fd5b6113e28282610ef9565b604080518281529051600160a060020a038416916000917fddf252ad1be2c89b69c2b068fc378daa952ba7f163c4a11628f55a4df523b3ef9181900360200190a35050565b6114318282610d12565b61143b8282610dc0565b604080518281529051600091600160a060020a038516917fddf252ad1be2c89b69c2b068fc378daa952ba7f163c4a11628f55a4df523b3ef9181900360200190a35050565b6000903b1190565b8181018281101561091857fe5b8154818355818111156106ab576000838152602090206106ab9181019083016114f9565b50805460018160011615610100020316600290046000825580601f106114df5750610cb0565b601f016020900490600052602060002090810190610cb091905b6105a091905b8082111561151357600081556001016114ff565b50905600a165627a7a72305820e8bb65a8e7a82c067cb72cc48e5ae1aa4140f20501904e9a37161d62ea950b310029",
  "source": "pragma solidity ^0.4.24;\n\nimport \"openzeppelin-solidity/contracts/token/ERC721/ERC721Token.sol\";\nimport \"openzeppelin-solidity/contracts/ownership/Ownable.sol\";\nimport \"./ERC809.sol\";\n\n\ncontract Reservation is ERC721Token, Ownable, ERC809Child {\n  mapping(uint256 => uint256) public calendarIds;\n  mapping(uint256 => uint256) public startTimestamps;\n  mapping(uint256 => uint256) public stopTimestamps;\n\n  constructor() public ERC721Token(\"Reservation\", \"REZ\") {\n  }\n\n  /// @notice Reserve access to token `_tokenId` from time `_start` to time `_stop`\n  /// @dev A successful reservation must ensure each time slot in the range _start to _stop\n  ///  is not previously reserved (by calling the function checkAvailable() described below)\n  ///  and then emit a Reserve event.\n  function reserve(address _to, uint256 _calendarId, uint256 _start, uint256 _stop)\n  external\n  onlyOwner()\n  returns(uint256)\n  {\n    uint256 tokenId = totalSupply();\n    super._mint(_to, tokenId);\n\n    calendarIds[tokenId] = _calendarId;\n    startTimestamps[tokenId] = _start;\n    stopTimestamps[tokenId] = _stop;\n\n    emit Creation(_to, _calendarId, tokenId);\n\n    return tokenId;\n  }\n\n  function cancel(address _owner, uint256 _tokenId)\n  external\n  onlyOwner()\n  {\n    super._burn(_owner, _tokenId);\n\n    uint256 calendarId = calendarIds[_tokenId];\n    delete calendarIds[_tokenId];\n    delete startTimestamps[_tokenId];\n    delete stopTimestamps[_tokenId];\n\n    emit Cancellation(_owner, calendarId, _tokenId);\n  }\n}\n",
  "sourcePath": "/Users/saurfang/workspace/meeth/contracts/Reservation.sol",
  "compiler": {
    "name": "solc",
    "version": "0.4.24+commit.e67f0147.Emscripten.clang"
  },
  "schemaVersion": "2.0.1",
  "updatedAt": "2018-07-09T06:17:29.903Z"
}