{
  "contractName": "Reservation",
  "abi": [
    {
      "constant": true,
      "inputs": [
        {
          "name": "_interfaceId",
          "type": "bytes4"
        }
      ],
      "name": "supportsInterface",
      "outputs": [
        {
          "name": "",
          "type": "bool"
        }
      ],
      "payable": false,
      "stateMutability": "view",
      "type": "function"
    },
    {
      "constant": true,
      "inputs": [],
      "name": "name",
      "outputs": [
        {
          "name": "",
          "type": "string"
        }
      ],
      "payable": false,
      "stateMutability": "view",
      "type": "function"
    },
    {
      "constant": true,
      "inputs": [
        {
          "name": "_tokenId",
          "type": "uint256"
        }
      ],
      "name": "getApproved",
      "outputs": [
        {
          "name": "",
          "type": "address"
        }
      ],
      "payable": false,
      "stateMutability": "view",
      "type": "function"
    },
    {
      "constant": false,
      "inputs": [
        {
          "name": "_to",
          "type": "address"
        },
        {
          "name": "_tokenId",
          "type": "uint256"
        }
      ],
      "name": "approve",
      "outputs": [],
      "payable": false,
      "stateMutability": "nonpayable",
      "type": "function"
    },
    {
      "constant": true,
      "inputs": [],
      "name": "totalSupply",
      "outputs": [
        {
          "name": "",
          "type": "uint256"
        }
      ],
      "payable": false,
      "stateMutability": "view",
      "type": "function"
    },
    {
      "constant": true,
      "inputs": [],
      "name": "InterfaceId_ERC165",
      "outputs": [
        {
          "name": "",
          "type": "bytes4"
        }
      ],
      "payable": false,
      "stateMutability": "view",
      "type": "function"
    },
    {
      "constant": false,
      "inputs": [
        {
          "name": "_from",
          "type": "address"
        },
        {
          "name": "_to",
          "type": "address"
        },
        {
          "name": "_tokenId",
          "type": "uint256"
        }
      ],
      "name": "transferFrom",
      "outputs": [],
      "payable": false,
      "stateMutability": "nonpayable",
      "type": "function"
    },
    {
      "constant": true,
      "inputs": [
        {
          "name": "",
          "type": "uint256"
        }
      ],
      "name": "calendarIds",
      "outputs": [
        {
          "name": "",
          "type": "uint256"
        }
      ],
      "payable": false,
      "stateMutability": "view",
      "type": "function"
    },
    {
      "constant": true,
      "inputs": [
        {
          "name": "_owner",
          "type": "address"
        },
        {
          "name": "_index",
          "type": "uint256"
        }
      ],
      "name": "tokenOfOwnerByIndex",
      "outputs": [
        {
          "name": "",
          "type": "uint256"
        }
      ],
      "payable": false,
      "stateMutability": "view",
      "type": "function"
    },
    {
      "constant": false,
      "inputs": [
        {
          "name": "_from",
          "type": "address"
        },
        {
          "name": "_to",
          "type": "address"
        },
        {
          "name": "_tokenId",
          "type": "uint256"
        }
      ],
      "name": "safeTransferFrom",
      "outputs": [],
      "payable": false,
      "stateMutability": "nonpayable",
      "type": "function"
    },
    {
      "constant": true,
      "inputs": [
        {
          "name": "_tokenId",
          "type": "uint256"
        }
      ],
      "name": "exists",
      "outputs": [
        {
          "name": "",
          "type": "bool"
        }
      ],
      "payable": false,
      "stateMutability": "view",
      "type": "function"
    },
    {
      "constant": true,
      "inputs": [
        {
          "name": "_index",
          "type": "uint256"
        }
      ],
      "name": "tokenByIndex",
      "outputs": [
        {
          "name": "",
          "type": "uint256"
        }
      ],
      "payable": false,
      "stateMutability": "view",
      "type": "function"
    },
    {
      "constant": true,
      "inputs": [
        {
          "name": "_tokenId",
          "type": "uint256"
        }
      ],
      "name": "ownerOf",
      "outputs": [
        {
          "name": "",
          "type": "address"
        }
      ],
      "payable": false,
      "stateMutability": "view",
      "type": "function"
    },
    {
      "constant": true,
      "inputs": [
        {
          "name": "_owner",
          "type": "address"
        }
      ],
      "name": "balanceOf",
      "outputs": [
        {
          "name": "",
          "type": "uint256"
        }
      ],
      "payable": false,
      "stateMutability": "view",
      "type": "function"
    },
    {
      "constant": false,
      "inputs": [],
      "name": "renounceOwnership",
      "outputs": [],
      "payable": false,
      "stateMutability": "nonpayable",
      "type": "function"
    },
    {
      "constant": true,
      "inputs": [],
      "name": "owner",
      "outputs": [
        {
          "name": "",
          "type": "address"
        }
      ],
      "payable": false,
      "stateMutability": "view",
      "type": "function"
    },
    {
      "constant": true,
      "inputs": [],
      "name": "symbol",
      "outputs": [
        {
          "name": "",
          "type": "string"
        }
      ],
      "payable": false,
      "stateMutability": "view",
      "type": "function"
    },
    {
      "constant": true,
      "inputs": [
        {
          "name": "",
          "type": "uint256"
        }
      ],
      "name": "stopTimestamps",
      "outputs": [
        {
          "name": "",
          "type": "uint256"
        }
      ],
      "payable": false,
      "stateMutability": "view",
      "type": "function"
    },
    {
      "constant": false,
      "inputs": [
        {
          "name": "_to",
          "type": "address"
        },
        {
          "name": "_approved",
          "type": "bool"
        }
      ],
      "name": "setApprovalForAll",
      "outputs": [],
      "payable": false,
      "stateMutability": "nonpayable",
      "type": "function"
    },
    {
      "constant": false,
      "inputs": [
        {
          "name": "_from",
          "type": "address"
        },
        {
          "name": "_to",
          "type": "address"
        },
        {
          "name": "_tokenId",
          "type": "uint256"
        },
        {
          "name": "_data",
          "type": "bytes"
        }
      ],
      "name": "safeTransferFrom",
      "outputs": [],
      "payable": false,
      "stateMutability": "nonpayable",
      "type": "function"
    },
    {
      "constant": true,
      "inputs": [
        {
          "name": "",
          "type": "uint256"
        }
      ],
      "name": "startTimestamps",
      "outputs": [
        {
          "name": "",
          "type": "uint256"
        }
      ],
      "payable": false,
      "stateMutability": "view",
      "type": "function"
    },
    {
      "constant": true,
      "inputs": [
        {
          "name": "_tokenId",
          "type": "uint256"
        }
      ],
      "name": "tokenURI",
      "outputs": [
        {
          "name": "",
          "type": "string"
        }
      ],
      "payable": false,
      "stateMutability": "view",
      "type": "function"
    },
    {
      "constant": true,
      "inputs": [
        {
          "name": "_owner",
          "type": "address"
        },
        {
          "name": "_operator",
          "type": "address"
        }
      ],
      "name": "isApprovedForAll",
      "outputs": [
        {
          "name": "",
          "type": "bool"
        }
      ],
      "payable": false,
      "stateMutability": "view",
      "type": "function"
    },
    {
      "constant": false,
      "inputs": [
        {
          "name": "_newOwner",
          "type": "address"
        }
      ],
      "name": "transferOwnership",
      "outputs": [],
      "payable": false,
      "stateMutability": "nonpayable",
      "type": "function"
    },
    {
      "inputs": [],
      "payable": false,
      "stateMutability": "nonpayable",
      "type": "constructor"
    },
    {
      "anonymous": false,
      "inputs": [
        {
          "indexed": true,
          "name": "_renter",
          "type": "address"
        },
        {
          "indexed": false,
          "name": "_calendarId",
          "type": "uint256"
        },
        {
          "indexed": false,
          "name": "_tokenId",
          "type": "uint256"
        }
      ],
      "name": "Creation",
      "type": "event"
    },
    {
      "anonymous": false,
      "inputs": [
        {
          "indexed": true,
          "name": "_renter",
          "type": "address"
        },
        {
          "indexed": false,
          "name": "_calendarId",
          "type": "uint256"
        },
        {
          "indexed": false,
          "name": "_tokenId",
          "type": "uint256"
        }
      ],
      "name": "Cancellation",
      "type": "event"
    },
    {
      "anonymous": false,
      "inputs": [
        {
          "indexed": true,
          "name": "previousOwner",
          "type": "address"
        }
      ],
      "name": "OwnershipRenounced",
      "type": "event"
    },
    {
      "anonymous": false,
      "inputs": [
        {
          "indexed": true,
          "name": "previousOwner",
          "type": "address"
        },
        {
          "indexed": true,
          "name": "newOwner",
          "type": "address"
        }
      ],
      "name": "OwnershipTransferred",
      "type": "event"
    },
    {
      "anonymous": false,
      "inputs": [
        {
          "indexed": true,
          "name": "_from",
          "type": "address"
        },
        {
          "indexed": true,
          "name": "_to",
          "type": "address"
        },
        {
          "indexed": true,
          "name": "_tokenId",
          "type": "uint256"
        }
      ],
      "name": "Transfer",
      "type": "event"
    },
    {
      "anonymous": false,
      "inputs": [
        {
          "indexed": true,
          "name": "_owner",
          "type": "address"
        },
        {
          "indexed": true,
          "name": "_approved",
          "type": "address"
        },
        {
          "indexed": true,
          "name": "_tokenId",
          "type": "uint256"
        }
      ],
      "name": "Approval",
      "type": "event"
    },
    {
      "anonymous": false,
      "inputs": [
        {
          "indexed": true,
          "name": "_owner",
          "type": "address"
        },
        {
          "indexed": true,
          "name": "_operator",
          "type": "address"
        },
        {
          "indexed": false,
          "name": "_approved",
          "type": "bool"
        }
      ],
      "name": "ApprovalForAll",
      "type": "event"
    },
    {
      "constant": false,
      "inputs": [
        {
          "name": "_to",
          "type": "address"
        },
        {
          "name": "_calendarId",
          "type": "uint256"
        },
        {
          "name": "_start",
          "type": "uint256"
        },
        {
          "name": "_stop",
          "type": "uint256"
        }
      ],
      "name": "reserve",
      "outputs": [
        {
          "name": "",
          "type": "uint256"
        }
      ],
      "payable": false,
      "stateMutability": "nonpayable",
      "type": "function"
    },
    {
      "constant": false,
      "inputs": [
        {
          "name": "_owner",
          "type": "address"
        },
        {
          "name": "_tokenId",
          "type": "uint256"
        }
      ],
      "name": "cancel",
      "outputs": [],
      "payable": false,
      "stateMutability": "nonpayable",
      "type": "function"
    }
  ],
  "bytecode": "0x60806040523480156200001157600080fd5b50604080518082018252600b81527f5265736572766174696f6e0000000000000000000000000000000000000000006020808301919091528251808401909352600383527f52455a00000000000000000000000000000000000000000000000000000000009083015290620000af7f01ffc9a700000000000000000000000000000000000000000000000000000000640100000000620001c5810204565b620000e37f80ac58cd00000000000000000000000000000000000000000000000000000000640100000000620001c5810204565b620001177f4f558e7900000000000000000000000000000000000000000000000000000000640100000000620001c5810204565b81516200012c90600590602085019062000232565b5080516200014290600690602084019062000232565b50620001777f780e9d6300000000000000000000000000000000000000000000000000000000640100000000620001c5810204565b620001ab7f5b5e139f00000000000000000000000000000000000000000000000000000000640100000000620001c5810204565b5050600c8054600160a060020a03191633179055620002d7565b7fffffffff000000000000000000000000000000000000000000000000000000008082161415620001f557600080fd5b7fffffffff00000000000000000000000000000000000000000000000000000000166000908152602081905260409020805460ff19166001179055565b828054600181600116156101000203166002900490600052602060002090601f016020900481019282601f106200027557805160ff1916838001178555620002a5565b82800160010185558215620002a5579182015b82811115620002a557825182559160200191906001019062000288565b50620002b3929150620002b7565b5090565b620002d491905b80821115620002b35760008155600101620002be565b90565b61154180620002e76000396000f3006080604052600436106101535763ffffffff7c010000000000000000000000000000000000000000000000000000000060003504166301ffc9a7811461015857806306fdde03146101a3578063081812fc1461022d578063095ea7b31461026157806318160ddd1461028757806319fa8f50146102ae57806323b872dd146102f557806324c310ea1461031f5780632a92b01f146103375780632f745c591461036157806342842e0e146103855780634f558e79146103af5780634f6ccce7146103c75780636352211e146103df57806370a08231146103f7578063715018a6146104185780638da5cb5b1461042d57806395d89b411461044257806398590ef914610457578063a19da9611461047b578063a22cb46514610493578063b88d4fde146104b9578063c4534aa014610528578063c87b56dd14610540578063e985e9c514610558578063f2fde38b1461057f575b600080fd5b34801561016457600080fd5b5061018f7bffffffffffffffffffffffffffffffffffffffffffffffffffffffff19600435166105a0565b604080519115158252519081900360200190f35b3480156101af57600080fd5b506101b86105d4565b6040805160208082528351818301528351919283929083019185019080838360005b838110156101f25781810151838201526020016101da565b50505050905090810190601f16801561021f5780820380516001836020036101000a031916815260200191505b509250505060405180910390f35b34801561023957600080fd5b5061024560043561066b565b60408051600160a060020a039092168252519081900360200190f35b34801561026d57600080fd5b50610285600160a060020a0360043516602435610686565b005b34801561029357600080fd5b5061029c61073c565b60408051918252519081900360200190f35b3480156102ba57600080fd5b506102c3610742565b604080517bffffffffffffffffffffffffffffffffffffffffffffffffffffffff199092168252519081900360200190f35b34801561030157600080fd5b50610285600160a060020a0360043581169060243516604435610766565b34801561032b57600080fd5b5061029c600435610809565b34801561034357600080fd5b5061029c600160a060020a036004351660243560443560643561081b565b34801561036d57600080fd5b5061029c600160a060020a03600435166024356108cf565b34801561039157600080fd5b50610285600160a060020a036004358116906024351660443561091c565b3480156103bb57600080fd5b5061018f60043561093d565b3480156103d357600080fd5b5061029c60043561095a565b3480156103eb57600080fd5b5061024560043561098f565b34801561040357600080fd5b5061029c600160a060020a03600435166109b9565b34801561042457600080fd5b506102856109ec565b34801561043957600080fd5b50610245610a5a565b34801561044e57600080fd5b506101b8610a69565b34801561046357600080fd5b50610285600160a060020a0360043516602435610aca565b34801561048757600080fd5b5061029c600435610b61565b34801561049f57600080fd5b50610285600160a060020a03600435166024351515610b73565b3480156104c557600080fd5b50604080516020601f60643560048181013592830184900484028501840190955281845261028594600160a060020a038135811695602480359092169560443595369560849401918190840183828082843750949750610bf79650505050505050565b34801561053457600080fd5b5061029c600435610c1f565b34801561054c57600080fd5b506101b8600435610c31565b34801561056457600080fd5b5061018f600160a060020a0360043581169060243516610ce6565b34801561058b57600080fd5b50610285600160a060020a0360043516610d14565b7bffffffffffffffffffffffffffffffffffffffffffffffffffffffff191660009081526020819052604090205460ff1690565b60058054604080516020601f60026000196101006001881615020190951694909404938401819004810282018101909252828152606093909290918301828280156106605780601f1061063557610100808354040283529160200191610660565b820191906000526020600020905b81548152906001019060200180831161064357829003601f168201915b505050505090505b90565b600090815260026020526040902054600160a060020a031690565b60006106918261098f565b9050600160a060020a0383811690821614156106ac57600080fd5b33600160a060020a03821614806106c857506106c88133610ce6565b15156106d357600080fd5b600082815260026020526040808220805473ffffffffffffffffffffffffffffffffffffffff1916600160a060020a0387811691821790925591518593918516917f8c5be1e5ebec7d5bd14f71427d1e84f3dd0314c0f7b2291e5b200ac8c7c3b92591a4505050565b60095490565b7f01ffc9a70000000000000000000000000000000000000000000000000000000081565b6107703382610d37565b151561077b57600080fd5b600160a060020a038316151561079057600080fd5b600160a060020a03821615156107a557600080fd5b6107af8382610d96565b6107b98382610e07565b6107c38282610f0e565b8082600160a060020a031684600160a060020a03167fddf252ad1be2c89b69c2b068fc378daa952ba7f163c4a11628f55a4df523b3ef60405160405180910390a4505050565b600d6020526000908152604090205481565b600c546000908190600160a060020a0316331461083757600080fd5b5060105461084c81600163ffffffff610f5716565b6010556108598682610f64565b6000818152600d60209081526040808320889055600e8252808320879055600f82529182902085905581518781529081018390528151600160a060020a038916927f0c42492e9a23edb18d7a10ab834f9871ecd80970bffc97312a8a1c05b88e807d928290030190a28091505b50949350505050565b60006108da836109b9565b82106108e557600080fd5b600160a060020a038316600090815260076020526040902080548390811061090957fe5b9060005260206000200154905092915050565b6109388383836020604051908101604052806000815250610bf7565b505050565b600090815260016020526040902054600160a060020a0316151590565b600061096461073c565b821061096f57600080fd5b600980548390811061097d57fe5b90600052602060002001549050919050565b600081815260016020526040812054600160a060020a03168015156109b357600080fd5b92915050565b6000600160a060020a03821615156109d057600080fd5b50600160a060020a031660009081526003602052604090205490565b600c54600160a060020a03163314610a0357600080fd5b600c54604051600160a060020a03909116907ff8df31144d9c2f0f6b59d69b8b98abd5459d07f2742c4df920b25aae33c6482090600090a2600c805473ffffffffffffffffffffffffffffffffffffffff19169055565b600c54600160a060020a031681565b60068054604080516020601f60026000196101006001881615020190951694909404938401819004810282018101909252828152606093909290918301828280156106605780601f1061063557610100808354040283529160200191610660565b600c54600090600160a060020a03163314610ae457600080fd5b610aee8383610fb3565b506000818152600d60209081526040808320805490849055600e8352818420849055600f83528184209390935580518381529182018490528051600160a060020a038616927f0d7bc7218b0c3ca2b1d50182f86627af6beb765bcf913b56b332c000b18294ea92908290030190a2505050565b600f6020526000908152604090205481565b600160a060020a038216331415610b8957600080fd5b336000818152600460209081526040808320600160a060020a03871680855290835292819020805460ff1916861515908117909155815190815290519293927f17307eab39ab6107e8899845ad3d59bd9653f200f220920489ca2b5937696c31929181900390910190a35050565b610c02848484610766565b610c0e848484846110ad565b1515610c1957600080fd5b50505050565b600e6020526000908152604090205481565b6060610c3c8261093d565b1515610c4757600080fd5b6000828152600b602090815260409182902080548351601f600260001961010060018616150201909316929092049182018490048402810184019094528084529091830182828015610cda5780601f10610caf57610100808354040283529160200191610cda565b820191906000526020600020905b815481529060010190602001808311610cbd57829003601f168201915b50505050509050919050565b600160a060020a03918216600090815260046020908152604080832093909416825291909152205460ff1690565b600c54600160a060020a03163314610d2b57600080fd5b610d348161122a565b50565b600080610d438361098f565b905080600160a060020a031684600160a060020a03161480610d7e575083600160a060020a0316610d738461066b565b600160a060020a0316145b80610d8e5750610d8e8185610ce6565b949350505050565b81600160a060020a0316610da98261098f565b600160a060020a031614610dbc57600080fd5b600081815260026020526040902054600160a060020a031615610e03576000818152600260205260409020805473ffffffffffffffffffffffffffffffffffffffff191690555b5050565b6000806000610e1685856112a8565b600084815260086020908152604080832054600160a060020a0389168452600790925290912054909350610e5190600163ffffffff61133e16565b600160a060020a038616600090815260076020526040902080549193509083908110610e7957fe5b90600052602060002001549050806007600087600160a060020a0316600160a060020a0316815260200190815260200160002084815481101515610eb957fe5b6000918252602080832090910192909255600160a060020a0387168152600790915260409020805490610ef0906000198301611493565b50600093845260086020526040808520859055908452909220555050565b6000610f1a8383611350565b50600160a060020a039091166000908152600760209081526040808320805460018101825590845282842081018590559383526008909152902055565b818101828110156109b357fe5b610f6e82826113e0565b600980546000838152600a60205260408120829055600182018355919091527f6e1540171b6c0c960b71a7020d9f60077f6af931a8bbf590da0223dacf75c7af015550565b6000806000610fc2858561143b565b6000848152600b60205260409020546002600019610100600184161502019091160415611000576000848152600b60205260408120611000916114b7565b6000848152600a602052604090205460095490935061102690600163ffffffff61133e16565b915060098281548110151561103757fe5b906000526020600020015490508060098481548110151561105457fe5b6000918252602082200191909155600980548490811061107057fe5b600091825260209091200155600980549061108f906000198301611493565b506000938452600a6020526040808520859055908452909220555050565b6000806110c285600160a060020a031661148b565b15156110d157600191506108c6565b6040517f150b7a020000000000000000000000000000000000000000000000000000000081523360048201818152600160a060020a03898116602485015260448401889052608060648501908152875160848601528751918a169463150b7a0294938c938b938b93909160a490910190602085019080838360005b8381101561116457818101518382015260200161114c565b50505050905090810190601f1680156111915780820380516001836020036101000a031916815260200191505b5095505050505050602060405180830381600087803b1580156111b357600080fd5b505af11580156111c7573d6000803e3d6000fd5b505050506040513d60208110156111dd57600080fd5b50517bffffffffffffffffffffffffffffffffffffffffffffffffffffffff19167f150b7a0200000000000000000000000000000000000000000000000000000000149695505050505050565b600160a060020a038116151561123f57600080fd5b600c54604051600160a060020a038084169216907f8be0079c531659141344cd1fd0a4f28419497f9722a3daafe3b4186f6b6457e090600090a3600c805473ffffffffffffffffffffffffffffffffffffffff1916600160a060020a0392909216919091179055565b81600160a060020a03166112bb8261098f565b600160a060020a0316146112ce57600080fd5b600160a060020a0382166000908152600360205260409020546112f890600163ffffffff61133e16565b600160a060020a03909216600090815260036020908152604080832094909455918152600190915220805473ffffffffffffffffffffffffffffffffffffffff19169055565b60008282111561134a57fe5b50900390565b600081815260016020526040902054600160a060020a03161561137257600080fd5b6000818152600160208181526040808420805473ffffffffffffffffffffffffffffffffffffffff1916600160a060020a03881690811790915584526003909152909120546113c091610f57565b600160a060020a0390921660009081526003602052604090209190915550565b600160a060020a03821615156113f557600080fd5b6113ff8282610f0e565b6040518190600160a060020a038416906000907fddf252ad1be2c89b69c2b068fc378daa952ba7f163c4a11628f55a4df523b3ef908290a45050565b6114458282610d96565b61144f8282610e07565b6040518190600090600160a060020a038516907fddf252ad1be2c89b69c2b068fc378daa952ba7f163c4a11628f55a4df523b3ef908390a45050565b6000903b1190565b815481835581811115610938576000838152602090206109389181019083016114f7565b50805460018160011615610100020316600290046000825580601f106114dd5750610d34565b601f016020900490600052602060002090810190610d3491905b61066891905b8082111561151157600081556001016114fd565b50905600a165627a7a72305820746b9f8edb1733c4e006e29b9858f4304c4ff9cc21b4531152fcad50bd3dac0a0029",
  "source": "pragma solidity ^0.4.24;\n\nimport \"openzeppelin-solidity/contracts/math/SafeMath.sol\";\nimport \"openzeppelin-solidity/contracts/token/ERC721/ERC721Token.sol\";\nimport \"openzeppelin-solidity/contracts/ownership/Ownable.sol\";\nimport \"./ERC809.sol\";\n\n\ncontract Reservation is ERC721Token, Ownable, ERC809Child {\n\n  mapping(uint256 => uint256) public calendarIds;\n  mapping(uint256 => uint256) public startTimestamps;\n  mapping(uint256 => uint256) public stopTimestamps;\n\n  uint256 nextTokenId;\n\n  constructor() public ERC721Token(\"Reservation\", \"REZ\") {\n  }\n\n  /// @notice Reserve access to token `_tokenId` from time `_start` to time `_stop`\n  /// @dev A successful reservation must ensure each time slot in the range _start to _stop\n  ///  is not previously reserved (by calling the function checkAvailable() described below)\n  ///  and then emit a Reserve event.\n  function reserve(address _to, uint256 _calendarId, uint256 _start, uint256 _stop)\n  external\n  onlyOwner()\n  returns(uint256)\n  {\n    uint256 tokenId = nextTokenId;\n    nextTokenId = nextTokenId.add(1);\n\n    super._mint(_to, tokenId);\n\n    calendarIds[tokenId] = _calendarId;\n    startTimestamps[tokenId] = _start;\n    stopTimestamps[tokenId] = _stop;\n\n    emit Creation(_to, _calendarId, tokenId);\n\n    return tokenId;\n  }\n\n  function cancel(address _owner, uint256 _tokenId)\n  external\n  onlyOwner()\n  {\n    super._burn(_owner, _tokenId);\n\n    uint256 calendarId = calendarIds[_tokenId];\n    delete calendarIds[_tokenId];\n    delete startTimestamps[_tokenId];\n    delete stopTimestamps[_tokenId];\n\n    emit Cancellation(_owner, calendarId, _tokenId);\n  }\n}\n",
  "sourcePath": "/Users/saurfang/workspace/meeth/contracts/Reservation.sol",
  "compiler": {
    "name": "solc",
    "version": "0.4.24+commit.e67f0147.Emscripten.clang"
  },
  "schemaVersion": "2.0.1",
  "updatedAt": "2018-08-27T04:43:02.526Z"
}